{
  "_format": "hh-sol-artifact-1",
  "contractName": "TemporalLoot",
  "sourceName": "contracts/TemporalLoot.sol",
  "abi": [
    {
      "inputs": [],
      "stateMutability": "nonpayable",
      "type": "constructor"
    },
    {
      "anonymous": false,
      "inputs": [
        {
          "indexed": true,
          "internalType": "address",
          "name": "owner",
          "type": "address"
        },
        {
          "indexed": true,
          "internalType": "address",
          "name": "approved",
          "type": "address"
        },
        {
          "indexed": true,
          "internalType": "uint256",
          "name": "tokenId",
          "type": "uint256"
        }
      ],
      "name": "Approval",
      "type": "event"
    },
    {
      "anonymous": false,
      "inputs": [
        {
          "indexed": true,
          "internalType": "address",
          "name": "owner",
          "type": "address"
        },
        {
          "indexed": true,
          "internalType": "address",
          "name": "operator",
          "type": "address"
        },
        {
          "indexed": false,
          "internalType": "bool",
          "name": "approved",
          "type": "bool"
        }
      ],
      "name": "ApprovalForAll",
      "type": "event"
    },
    {
      "anonymous": false,
      "inputs": [
        {
          "indexed": true,
          "internalType": "address",
          "name": "previousOwner",
          "type": "address"
        },
        {
          "indexed": true,
          "internalType": "address",
          "name": "newOwner",
          "type": "address"
        }
      ],
      "name": "OwnershipTransferred",
      "type": "event"
    },
    {
      "anonymous": false,
      "inputs": [
        {
          "indexed": true,
          "internalType": "address",
          "name": "from",
          "type": "address"
        },
        {
          "indexed": true,
          "internalType": "address",
          "name": "to",
          "type": "address"
        },
        {
          "indexed": true,
          "internalType": "uint256",
          "name": "tokenId",
          "type": "uint256"
        }
      ],
      "name": "Transfer",
      "type": "event"
    },
    {
      "inputs": [
        {
          "internalType": "address",
          "name": "to",
          "type": "address"
        },
        {
          "internalType": "uint256",
          "name": "tokenId",
          "type": "uint256"
        }
      ],
      "name": "approve",
      "outputs": [],
      "stateMutability": "nonpayable",
      "type": "function"
    },
    {
      "inputs": [
        {
          "internalType": "address",
          "name": "owner",
          "type": "address"
        }
      ],
      "name": "balanceOf",
      "outputs": [
        {
          "internalType": "uint256",
          "name": "",
          "type": "uint256"
        }
      ],
      "stateMutability": "view",
      "type": "function"
    },
    {
      "inputs": [
        {
          "internalType": "uint256",
          "name": "tokenId",
          "type": "uint256"
        }
      ],
      "name": "claim",
      "outputs": [],
      "stateMutability": "nonpayable",
      "type": "function"
    },
    {
      "inputs": [
        {
          "internalType": "uint256",
          "name": "tokenId",
          "type": "uint256"
        }
      ],
      "name": "getApproved",
      "outputs": [
        {
          "internalType": "address",
          "name": "",
          "type": "address"
        }
      ],
      "stateMutability": "view",
      "type": "function"
    },
    {
      "inputs": [
        {
          "internalType": "uint256",
          "name": "tokenId",
          "type": "uint256"
        }
      ],
      "name": "getChest",
      "outputs": [
        {
          "internalType": "string",
          "name": "",
          "type": "string"
        }
      ],
      "stateMutability": "view",
      "type": "function"
    },
    {
      "inputs": [
        {
          "internalType": "uint256",
          "name": "tokenId",
          "type": "uint256"
        }
      ],
      "name": "getFoot",
      "outputs": [
        {
          "internalType": "string",
          "name": "",
          "type": "string"
        }
      ],
      "stateMutability": "view",
      "type": "function"
    },
    {
      "inputs": [
        {
          "internalType": "uint256",
          "name": "tokenId",
          "type": "uint256"
        }
      ],
      "name": "getHand",
      "outputs": [
        {
          "internalType": "string",
          "name": "",
          "type": "string"
        }
      ],
      "stateMutability": "view",
      "type": "function"
    },
    {
      "inputs": [
        {
          "internalType": "uint256",
          "name": "tokenId",
          "type": "uint256"
        }
      ],
      "name": "getHead",
      "outputs": [
        {
          "internalType": "string",
          "name": "",
          "type": "string"
        }
      ],
      "stateMutability": "view",
      "type": "function"
    },
    {
      "inputs": [
        {
          "internalType": "uint256",
          "name": "tokenId",
          "type": "uint256"
        }
      ],
      "name": "getNeck",
      "outputs": [
        {
          "internalType": "string",
          "name": "",
          "type": "string"
        }
      ],
      "stateMutability": "view",
      "type": "function"
    },
    {
      "inputs": [
        {
          "internalType": "uint256",
          "name": "tokenId",
          "type": "uint256"
        }
      ],
      "name": "getRing",
      "outputs": [
        {
          "internalType": "string",
          "name": "",
          "type": "string"
        }
      ],
      "stateMutability": "view",
      "type": "function"
    },
    {
      "inputs": [
        {
          "internalType": "uint256",
          "name": "tokenId",
          "type": "uint256"
        }
      ],
      "name": "getWaist",
      "outputs": [
        {
          "internalType": "string",
          "name": "",
          "type": "string"
        }
      ],
      "stateMutability": "view",
      "type": "function"
    },
    {
      "inputs": [
        {
          "internalType": "uint256",
          "name": "tokenId",
          "type": "uint256"
        }
      ],
      "name": "getWeapon",
      "outputs": [
        {
          "internalType": "string",
          "name": "",
          "type": "string"
        }
      ],
      "stateMutability": "view",
      "type": "function"
    },
    {
      "inputs": [
        {
          "internalType": "address",
          "name": "owner",
          "type": "address"
        },
        {
          "internalType": "address",
          "name": "operator",
          "type": "address"
        }
      ],
      "name": "isApprovedForAll",
      "outputs": [
        {
          "internalType": "bool",
          "name": "",
          "type": "bool"
        }
      ],
      "stateMutability": "view",
      "type": "function"
    },
    {
      "inputs": [
        {
          "internalType": "uint256[]",
          "name": "tokenIds",
          "type": "uint256[]"
        }
      ],
      "name": "multiClaim",
      "outputs": [],
      "stateMutability": "nonpayable",
      "type": "function"
    },
    {
      "inputs": [],
      "name": "name",
      "outputs": [
        {
          "internalType": "string",
          "name": "",
          "type": "string"
        }
      ],
      "stateMutability": "view",
      "type": "function"
    },
    {
      "inputs": [],
      "name": "owner",
      "outputs": [
        {
          "internalType": "address",
          "name": "",
          "type": "address"
        }
      ],
      "stateMutability": "view",
      "type": "function"
    },
    {
      "inputs": [
        {
          "internalType": "uint256",
          "name": "tokenId",
          "type": "uint256"
        }
      ],
      "name": "ownerOf",
      "outputs": [
        {
          "internalType": "address",
          "name": "",
          "type": "address"
        }
      ],
      "stateMutability": "view",
      "type": "function"
    },
    {
      "inputs": [],
      "name": "renounceOwnership",
      "outputs": [],
      "stateMutability": "nonpayable",
      "type": "function"
    },
    {
      "inputs": [
        {
          "internalType": "address",
          "name": "from",
          "type": "address"
        },
        {
          "internalType": "address",
          "name": "to",
          "type": "address"
        },
        {
          "internalType": "uint256",
          "name": "tokenId",
          "type": "uint256"
        }
      ],
      "name": "safeTransferFrom",
      "outputs": [],
      "stateMutability": "nonpayable",
      "type": "function"
    },
    {
      "inputs": [
        {
          "internalType": "address",
          "name": "from",
          "type": "address"
        },
        {
          "internalType": "address",
          "name": "to",
          "type": "address"
        },
        {
          "internalType": "uint256",
          "name": "tokenId",
          "type": "uint256"
        },
        {
          "internalType": "bytes",
          "name": "_data",
          "type": "bytes"
        }
      ],
      "name": "safeTransferFrom",
      "outputs": [],
      "stateMutability": "nonpayable",
      "type": "function"
    },
    {
      "inputs": [
        {
          "internalType": "address",
          "name": "operator",
          "type": "address"
        },
        {
          "internalType": "bool",
          "name": "approved",
          "type": "bool"
        }
      ],
      "name": "setApprovalForAll",
      "outputs": [],
      "stateMutability": "nonpayable",
      "type": "function"
    },
    {
      "inputs": [
        {
          "internalType": "bytes4",
          "name": "interfaceId",
          "type": "bytes4"
        }
      ],
      "name": "supportsInterface",
      "outputs": [
        {
          "internalType": "bool",
          "name": "",
          "type": "bool"
        }
      ],
      "stateMutability": "view",
      "type": "function"
    },
    {
      "inputs": [],
      "name": "symbol",
      "outputs": [
        {
          "internalType": "string",
          "name": "",
          "type": "string"
        }
      ],
      "stateMutability": "view",
      "type": "function"
    },
    {
      "inputs": [
        {
          "internalType": "uint256",
          "name": "index",
          "type": "uint256"
        }
      ],
      "name": "tokenByIndex",
      "outputs": [
        {
          "internalType": "uint256",
          "name": "",
          "type": "uint256"
        }
      ],
      "stateMutability": "view",
      "type": "function"
    },
    {
      "inputs": [
        {
          "internalType": "address",
          "name": "owner",
          "type": "address"
        },
        {
          "internalType": "uint256",
          "name": "index",
          "type": "uint256"
        }
      ],
      "name": "tokenOfOwnerByIndex",
      "outputs": [
        {
          "internalType": "uint256",
          "name": "",
          "type": "uint256"
        }
      ],
      "stateMutability": "view",
      "type": "function"
    },
    {
      "inputs": [
        {
          "internalType": "uint256",
          "name": "tokenId",
          "type": "uint256"
        }
      ],
      "name": "tokenURI",
      "outputs": [
        {
          "internalType": "string",
          "name": "",
          "type": "string"
        }
      ],
      "stateMutability": "view",
      "type": "function"
    },
    {
      "inputs": [],
      "name": "totalSupply",
      "outputs": [
        {
          "internalType": "uint256",
          "name": "",
          "type": "uint256"
        }
      ],
      "stateMutability": "view",
      "type": "function"
    },
    {
      "inputs": [
        {
          "internalType": "address",
          "name": "from",
          "type": "address"
        },
        {
          "internalType": "address",
          "name": "to",
          "type": "address"
        },
        {
          "internalType": "uint256",
          "name": "tokenId",
          "type": "uint256"
        }
      ],
      "name": "transferFrom",
      "outputs": [],
      "stateMutability": "nonpayable",
      "type": "function"
    },
    {
      "inputs": [
        {
          "internalType": "address",
          "name": "newOwner",
          "type": "address"
        }
      ],
      "name": "transferOwnership",
      "outputs": [],
      "stateMutability": "nonpayable",
      "type": "function"
    }
  ],
  "bytecode": "0x60806040526040518061024001604052806040518060400160405280600981526020017f57617268616d6d6572000000000000000000000000000000000000000000000081525081526020016040518060400160405280600c81526020017f517561727465727374616666000000000000000000000000000000000000000081525081526020016040518060400160405280600481526020017f4d61756c0000000000000000000000000000000000000000000000000000000081525081526020016040518060400160405280600481526020017f4d6163650000000000000000000000000000000000000000000000000000000081525081526020016040518060400160405280600481526020017f436c75620000000000000000000000000000000000000000000000000000000081525081526020016040518060400160405280600681526020017f4b6174616e61000000000000000000000000000000000000000000000000000081525081526020016040518060400160405280600881526020017f46616c6368696f6e00000000000000000000000000000000000000000000000081525081526020016040518060400160405280600881526020017f5363696d6974617200000000000000000000000000000000000000000000000081525081526020016040518060400160405280600a81526020017f4c6f6e672053776f72640000000000000000000000000000000000000000000081525081526020016040518060400160405280600b81526020017f53686f72742053776f726400000000000000000000000000000000000000000081525081526020016040518060400160405280600a81526020017f47686f73742057616e640000000000000000000000000000000000000000000081525081526020016040518060400160405280600a81526020017f47726176652057616e640000000000000000000000000000000000000000000081525081526020016040518060400160405280600981526020017f426f6e652057616e64000000000000000000000000000000000000000000000081525081526020016040518060400160405280600481526020017f57616e640000000000000000000000000000000000000000000000000000000081525081526020016040518060400160405280600881526020017f4772696d6f69726500000000000000000000000000000000000000000000000081525081526020016040518060400160405280600981526020017f4368726f6e69636c65000000000000000000000000000000000000000000000081525081526020016040518060400160405280600481526020017f546f6d650000000000000000000000000000000000000000000000000000000081525081526020016040518060400160405280600481526020017f426f6f6b00000000000000000000000000000000000000000000000000000000815250815250600c90601262000446929190620031ef565b50604051806101e001604052806040518060400160405280600b81526020017f446976696e6520526f626500000000000000000000000000000000000000000081525081526020016040518060400160405280600981526020017f53696c6b20526f6265000000000000000000000000000000000000000000000081525081526020016040518060400160405280600a81526020017f4c696e656e20526f62650000000000000000000000000000000000000000000081525081526020016040518060400160405280600481526020017f526f62650000000000000000000000000000000000000000000000000000000081525081526020016040518060400160405280600581526020017f536869727400000000000000000000000000000000000000000000000000000081525081526020016040518060400160405280600a81526020017f44656d6f6e204875736b0000000000000000000000000000000000000000000081525081526020016040518060400160405280601081526020017f447261676f6e736b696e2041726d6f720000000000000000000000000000000081525081526020016040518060400160405280601581526020017f53747564646564204c6561746865722041726d6f72000000000000000000000081525081526020016040518060400160405280601281526020017f48617264204c6561746865722041726d6f72000000000000000000000000000081525081526020016040518060400160405280600d81526020017f4c6561746865722041726d6f720000000000000000000000000000000000000081525081526020016040518060400160405280600f81526020017f486f6c79204368657374706c617465000000000000000000000000000000000081525081526020016040518060400160405280601181526020017f4f726e617465204368657374706c61746500000000000000000000000000000081525081526020016040518060400160405280600a81526020017f506c617465204d61696c0000000000000000000000000000000000000000000081525081526020016040518060400160405280600a81526020017f436861696e204d61696c0000000000000000000000000000000000000000000081525081526020016040518060400160405280600981526020017f52696e67204d61696c0000000000000000000000000000000000000000000000815250815250600d90600f620007d892919062003256565b50604051806101e001604052806040518060400160405280600c81526020017f416e6369656e742048656c6d000000000000000000000000000000000000000081525081526020016040518060400160405280600b81526020017f4f726e6174652048656c6d00000000000000000000000000000000000000000081525081526020016040518060400160405280600a81526020017f47726561742048656c6d0000000000000000000000000000000000000000000081525081526020016040518060400160405280600981526020017f46756c6c2048656c6d000000000000000000000000000000000000000000000081525081526020016040518060400160405280600481526020017f48656c6d0000000000000000000000000000000000000000000000000000000081525081526020016040518060400160405280600b81526020017f44656d6f6e2043726f776e00000000000000000000000000000000000000000081525081526020016040518060400160405280600e81526020017f447261676f6e27732043726f776e00000000000000000000000000000000000081525081526020016040518060400160405280600781526020017f576172204361700000000000000000000000000000000000000000000000000081525081526020016040518060400160405280600b81526020017f4c6561746865722043617000000000000000000000000000000000000000000081525081526020016040518060400160405280600381526020017f436170000000000000000000000000000000000000000000000000000000000081525081526020016040518060400160405280600581526020017f43726f776e00000000000000000000000000000000000000000000000000000081525081526020016040518060400160405280600b81526020017f446976696e6520486f6f6400000000000000000000000000000000000000000081525081526020016040518060400160405280600981526020017f53696c6b20486f6f64000000000000000000000000000000000000000000000081525081526020016040518060400160405280600a81526020017f4c696e656e20486f6f640000000000000000000000000000000000000000000081525081526020016040518060400160405280600481526020017f486f6f6400000000000000000000000000000000000000000000000000000000815250815250600e90600f62000b6a92919062003256565b50604051806101e001604052806040518060400160405280600b81526020017f4f726e6174652042656c7400000000000000000000000000000000000000000081525081526020016040518060400160405280600881526020017f5761722042656c7400000000000000000000000000000000000000000000000081525081526020016040518060400160405280600b81526020017f506c617465642042656c7400000000000000000000000000000000000000000081525081526020016040518060400160405280600981526020017f4d6573682042656c74000000000000000000000000000000000000000000000081525081526020016040518060400160405280600a81526020017f48656176792042656c740000000000000000000000000000000000000000000081525081526020016040518060400160405280600e81526020017f44656d6f6e686964652042656c7400000000000000000000000000000000000081525081526020016040518060400160405280600f81526020017f447261676f6e736b696e2042656c74000000000000000000000000000000000081525081526020016040518060400160405280601481526020017f53747564646564204c6561746865722042656c7400000000000000000000000081525081526020016040518060400160405280601181526020017f48617264204c6561746865722042656c7400000000000000000000000000000081525081526020016040518060400160405280600c81526020017f4c6561746865722042656c74000000000000000000000000000000000000000081525081526020016040518060400160405280600f81526020017f42726967687473696c6b2053617368000000000000000000000000000000000081525081526020016040518060400160405280600981526020017f53696c6b2053617368000000000000000000000000000000000000000000000081525081526020016040518060400160405280600981526020017f576f6f6c2053617368000000000000000000000000000000000000000000000081525081526020016040518060400160405280600a81526020017f4c696e656e20536173680000000000000000000000000000000000000000000081525081526020016040518060400160405280600481526020017f5361736800000000000000000000000000000000000000000000000000000000815250815250600f90600f62000efc92919062003256565b50604051806101e001604052806040518060400160405280600c81526020017f486f6c792047726561766573000000000000000000000000000000000000000081525081526020016040518060400160405280600e81526020017f4f726e617465204772656176657300000000000000000000000000000000000081525081526020016040518060400160405280600781526020017f477265617665730000000000000000000000000000000000000000000000000081525081526020016040518060400160405280600b81526020017f436861696e20426f6f747300000000000000000000000000000000000000000081525081526020016040518060400160405280600b81526020017f486561767920426f6f747300000000000000000000000000000000000000000081525081526020016040518060400160405280600f81526020017f44656d6f6e6869646520426f6f7473000000000000000000000000000000000081525081526020016040518060400160405280601081526020017f447261676f6e736b696e20426f6f74730000000000000000000000000000000081525081526020016040518060400160405280601581526020017f53747564646564204c65617468657220426f6f7473000000000000000000000081525081526020016040518060400160405280601281526020017f48617264204c65617468657220426f6f7473000000000000000000000000000081525081526020016040518060400160405280600d81526020017f4c65617468657220426f6f74730000000000000000000000000000000000000081525081526020016040518060400160405280600f81526020017f446976696e6520536c697070657273000000000000000000000000000000000081525081526020016040518060400160405280600d81526020017f53696c6b20536c6970706572730000000000000000000000000000000000000081525081526020016040518060400160405280600a81526020017f576f6f6c2053686f65730000000000000000000000000000000000000000000081525081526020016040518060400160405280600b81526020017f4c696e656e2053686f657300000000000000000000000000000000000000000081525081526020016040518060400160405280600581526020017f53686f6573000000000000000000000000000000000000000000000000000000815250815250601090600f6200128e92919062003256565b50604051806101e001604052806040518060400160405280600e81526020017f486f6c79204761756e746c65747300000000000000000000000000000000000081525081526020016040518060400160405280601081526020017f4f726e617465204761756e746c6574730000000000000000000000000000000081525081526020016040518060400160405280600981526020017f4761756e746c657473000000000000000000000000000000000000000000000081525081526020016040518060400160405280600c81526020017f436861696e20476c6f766573000000000000000000000000000000000000000081525081526020016040518060400160405280600c81526020017f486561767920476c6f766573000000000000000000000000000000000000000081525081526020016040518060400160405280600d81526020017f44656d6f6e27732048616e64730000000000000000000000000000000000000081525081526020016040518060400160405280601181526020017f447261676f6e736b696e20476c6f76657300000000000000000000000000000081525081526020016040518060400160405280601681526020017f53747564646564204c65617468657220476c6f7665730000000000000000000081525081526020016040518060400160405280601381526020017f48617264204c65617468657220476c6f7665730000000000000000000000000081525081526020016040518060400160405280600e81526020017f4c65617468657220476c6f76657300000000000000000000000000000000000081525081526020016040518060400160405280600d81526020017f446976696e6520476c6f7665730000000000000000000000000000000000000081525081526020016040518060400160405280600b81526020017f53696c6b20476c6f76657300000000000000000000000000000000000000000081525081526020016040518060400160405280600b81526020017f576f6f6c20476c6f76657300000000000000000000000000000000000000000081525081526020016040518060400160405280600c81526020017f4c696e656e20476c6f766573000000000000000000000000000000000000000081525081526020016040518060400160405280600681526020017f476c6f7665730000000000000000000000000000000000000000000000000000815250815250601190600f6200162092919062003256565b5060405180606001604052806040518060400160405280600881526020017f4e65636b6c61636500000000000000000000000000000000000000000000000081525081526020016040518060400160405280600681526020017f416d756c6574000000000000000000000000000000000000000000000000000081525081526020016040518060400160405280600781526020017f50656e64616e74000000000000000000000000000000000000000000000000008152508152506012906003620016ed929190620032bd565b506040518060a001604052806040518060400160405280600981526020017f476f6c642052696e67000000000000000000000000000000000000000000000081525081526020016040518060400160405280600b81526020017f53696c7665722052696e6700000000000000000000000000000000000000000081525081526020016040518060400160405280600b81526020017f42726f6e7a652052696e6700000000000000000000000000000000000000000081525081526020016040518060400160405280600d81526020017f506c6174696e756d2052696e670000000000000000000000000000000000000081525081526020016040518060400160405280600d81526020017f546974616e69756d2052696e670000000000000000000000000000000000000081525081525060139060056200183092919062003324565b506040518061020001604052806040518060400160405280600881526020017f6f6620506f77657200000000000000000000000000000000000000000000000081525081526020016040518060400160405280600981526020017f6f66204769616e7473000000000000000000000000000000000000000000000081525081526020016040518060400160405280600981526020017f6f6620546974616e73000000000000000000000000000000000000000000000081525081526020016040518060400160405280600881526020017f6f6620536b696c6c00000000000000000000000000000000000000000000000081525081526020016040518060400160405280600d81526020017f6f662050657266656374696f6e0000000000000000000000000000000000000081525081526020016040518060400160405280600d81526020017f6f66204272696c6c69616e63650000000000000000000000000000000000000081525081526020016040518060400160405280601081526020017f6f6620456e6c69676874656e6d656e740000000000000000000000000000000081525081526020016040518060400160405280600d81526020017f6f662050726f74656374696f6e0000000000000000000000000000000000000081525081526020016040518060400160405280600881526020017f6f6620416e67657200000000000000000000000000000000000000000000000081525081526020016040518060400160405280600781526020017f6f6620526167650000000000000000000000000000000000000000000000000081525081526020016040518060400160405280600781526020017f6f6620467572790000000000000000000000000000000000000000000000000081525081526020016040518060400160405280600a81526020017f6f662056697472696f6c0000000000000000000000000000000000000000000081525081526020016040518060400160405280600a81526020017f6f662074686520466f780000000000000000000000000000000000000000000081525081526020016040518060400160405280600c81526020017f6f6620446574656374696f6e000000000000000000000000000000000000000081525081526020016040518060400160405280600d81526020017f6f66205265666c656374696f6e0000000000000000000000000000000000000081525081526020016040518060400160405280600c81526020017f6f6620746865205477696e730000000000000000000000000000000000000000815250815250601490601062001bfd9291906200338b565b50604051806108a001604052806040518060400160405280600581526020017f41676f6e7900000000000000000000000000000000000000000000000000000081525081526020016040518060400160405280600a81526020017f41706f63616c797073650000000000000000000000000000000000000000000081525081526020016040518060400160405280600a81526020017f41726d61676564646f6e0000000000000000000000000000000000000000000081525081526020016040518060400160405280600581526020017f426561737400000000000000000000000000000000000000000000000000000081525081526020016040518060400160405280600881526020017f426568656d6f746800000000000000000000000000000000000000000000000081525081526020016040518060400160405280600681526020017f426c69676874000000000000000000000000000000000000000000000000000081525081526020016040518060400160405280600581526020017f426c6f6f6400000000000000000000000000000000000000000000000000000081525081526020016040518060400160405280600781526020017f4272616d626c650000000000000000000000000000000000000000000000000081525081526020016040518060400160405280600981526020017f4272696d73746f6e65000000000000000000000000000000000000000000000081525081526020016040518060400160405280600581526020017f42726f6f6400000000000000000000000000000000000000000000000000000081525081526020016040518060400160405280600781526020017f43617272696f6e0000000000000000000000000000000000000000000000000081525081526020016040518060400160405280600981526020017f43617461636c79736d000000000000000000000000000000000000000000000081525081526020016040518060400160405280600881526020017f4368696d6572696300000000000000000000000000000000000000000000000081525081526020016040518060400160405280600681526020017f436f72707365000000000000000000000000000000000000000000000000000081525081526020016040518060400160405280600a81526020017f436f7272757074696f6e0000000000000000000000000000000000000000000081525081526020016040518060400160405280600981526020017f44616d6e6174696f6e000000000000000000000000000000000000000000000081525081526020016040518060400160405280600581526020017f446561746800000000000000000000000000000000000000000000000000000081525081526020016040518060400160405280600581526020017f44656d6f6e00000000000000000000000000000000000000000000000000000081525081526020016040518060400160405280600481526020017f446972650000000000000000000000000000000000000000000000000000000081525081526020016040518060400160405280600681526020017f447261676f6e000000000000000000000000000000000000000000000000000081525081526020016040518060400160405280600581526020017f447265616400000000000000000000000000000000000000000000000000000081525081526020016040518060400160405280600481526020017f446f6f6d0000000000000000000000000000000000000000000000000000000081525081526020016040518060400160405280600481526020017f4475736b0000000000000000000000000000000000000000000000000000000081525081526020016040518060400160405280600581526020017f4561676c6500000000000000000000000000000000000000000000000000000081525081526020016040518060400160405280600881526020017f456d70797265616e00000000000000000000000000000000000000000000000081525081526020016040518060400160405280600481526020017f466174650000000000000000000000000000000000000000000000000000000081525081526020016040518060400160405280600381526020017f466f65000000000000000000000000000000000000000000000000000000000081525081526020016040518060400160405280600481526020017f47616c650000000000000000000000000000000000000000000000000000000081525081526020016040518060400160405280600581526020017f47686f756c00000000000000000000000000000000000000000000000000000081525081526020016040518060400160405280600581526020017f476c6f6f6d00000000000000000000000000000000000000000000000000000081525081526020016040518060400160405280600581526020017f476c79706800000000000000000000000000000000000000000000000000000081525081526020016040518060400160405280600581526020017f476f6c656d00000000000000000000000000000000000000000000000000000081525081526020016040518060400160405280600481526020017f4772696d0000000000000000000000000000000000000000000000000000000081525081526020016040518060400160405280600481526020017f486174650000000000000000000000000000000000000000000000000000000081525081526020016040518060400160405280600581526020017f4861766f6300000000000000000000000000000000000000000000000000000081525081526020016040518060400160405280600681526020017f486f6e6f7572000000000000000000000000000000000000000000000000000081525081526020016040518060400160405280600681526020017f486f72726f72000000000000000000000000000000000000000000000000000081525081526020016040518060400160405280600881526020017f4879706e6f74696300000000000000000000000000000000000000000000000081525081526020016040518060400160405280600681526020017f4b72616b656e000000000000000000000000000000000000000000000000000081525081526020016040518060400160405280600581526020017f4c6f61746800000000000000000000000000000000000000000000000000000081525081526020016040518060400160405280600981526020017f4d61656c7374726f6d000000000000000000000000000000000000000000000081525081526020016040518060400160405280600481526020017f4d696e640000000000000000000000000000000000000000000000000000000081525081526020016040518060400160405280600781526020017f4d697261636c650000000000000000000000000000000000000000000000000081525081526020016040518060400160405280600681526020017f4d6f72626964000000000000000000000000000000000000000000000000000081525081526020016040518060400160405280600881526020017f4f626c6976696f6e00000000000000000000000000000000000000000000000081525081526020016040518060400160405280600981526020017f4f6e736c6175676874000000000000000000000000000000000000000000000081525081526020016040518060400160405280600481526020017f5061696e0000000000000000000000000000000000000000000000000000000081525081526020016040518060400160405280600b81526020017f50616e64656d6f6e69756d00000000000000000000000000000000000000000081525081526020016040518060400160405280600781526020017f50686f656e69780000000000000000000000000000000000000000000000000081525081526020016040518060400160405280600681526020017f506c61677565000000000000000000000000000000000000000000000000000081525081526020016040518060400160405280600481526020017f526167650000000000000000000000000000000000000000000000000000000081525081526020016040518060400160405280600781526020017f526170747572650000000000000000000000000000000000000000000000000081525081526020016040518060400160405280600481526020017f52756e650000000000000000000000000000000000000000000000000000000081525081526020016040518060400160405280600581526020017f536b756c6c00000000000000000000000000000000000000000000000000000081525081526020016040518060400160405280600381526020017f536f6c000000000000000000000000000000000000000000000000000000000081525081526020016040518060400160405280600481526020017f536f756c0000000000000000000000000000000000000000000000000000000081525081526020016040518060400160405280600681526020017f536f72726f77000000000000000000000000000000000000000000000000000081525081526020016040518060400160405280600681526020017f537069726974000000000000000000000000000000000000000000000000000081525081526020016040518060400160405280600581526020017f53746f726d00000000000000000000000000000000000000000000000000000081525081526020016040518060400160405280600781526020017f54656d706573740000000000000000000000000000000000000000000000000081525081526020016040518060400160405280600781526020017f546f726d656e740000000000000000000000000000000000000000000000000081525081526020016040518060400160405280600981526020017f56656e6765616e6365000000000000000000000000000000000000000000000081525081526020016040518060400160405280600781526020017f566963746f72790000000000000000000000000000000000000000000000000081525081526020016040518060400160405280600581526020017f566970657200000000000000000000000000000000000000000000000000000081525081526020016040518060400160405280600681526020017f566f72746578000000000000000000000000000000000000000000000000000081525081526020016040518060400160405280600381526020017f576f65000000000000000000000000000000000000000000000000000000000081525081526020016040518060400160405280600581526020017f577261746800000000000000000000000000000000000000000000000000000081525081526020016040518060400160405280600781526020017f4c6967687427730000000000000000000000000000000000000000000000000081525081526020016040518060400160405280600a81526020017f5368696d6d6572696e6700000000000000000000000000000000000000000000815250815250601590604562002c01929190620033f2565b506040518061024001604052806040518060400160405280600481526020017f42616e650000000000000000000000000000000000000000000000000000000081525081526020016040518060400160405280600481526020017f526f6f740000000000000000000000000000000000000000000000000000000081525081526020016040518060400160405280600481526020017f426974650000000000000000000000000000000000000000000000000000000081525081526020016040518060400160405280600481526020017f536f6e670000000000000000000000000000000000000000000000000000000081525081526020016040518060400160405280600481526020017f526f61720000000000000000000000000000000000000000000000000000000081525081526020016040518060400160405280600581526020017f477261737000000000000000000000000000000000000000000000000000000081525081526020016040518060400160405280600a81526020017f496e737472756d656e740000000000000000000000000000000000000000000081525081526020016040518060400160405280600481526020017f476c6f770000000000000000000000000000000000000000000000000000000081525081526020016040518060400160405280600681526020017f42656e646572000000000000000000000000000000000000000000000000000081525081526020016040518060400160405280600681526020017f536861646f77000000000000000000000000000000000000000000000000000081525081526020016040518060400160405280600781526020017f576869737065720000000000000000000000000000000000000000000000000081525081526020016040518060400160405280600581526020017f53686f757400000000000000000000000000000000000000000000000000000081525081526020016040518060400160405280600581526020017f47726f776c00000000000000000000000000000000000000000000000000000081525081526020016040518060400160405280600481526020017f546561720000000000000000000000000000000000000000000000000000000081525081526020016040518060400160405280600481526020017f5065616b0000000000000000000000000000000000000000000000000000000081525081526020016040518060400160405280600481526020017f466f726d0000000000000000000000000000000000000000000000000000000081525081526020016040518060400160405280600381526020017f53756e000000000000000000000000000000000000000000000000000000000081525081526020016040518060400160405280600481526020017f4d6f6f6e00000000000000000000000000000000000000000000000000000000815250815250601690601262003044929190620031ef565b503480156200305257600080fd5b506040518060400160405280600981526020017f4d6f7265204c6f6f7400000000000000000000000000000000000000000000008152506040518060400160405280600581526020017f4d4c4f4f540000000000000000000000000000000000000000000000000000008152508160009080519060200190620030d792919062003459565b508060019080519060200190620030f092919062003459565b5050506001600a819055506200311b6200310f6200312160201b60201c565b6200312960201b60201c565b620035dc565b600033905090565b6000600b60009054906101000a900473ffffffffffffffffffffffffffffffffffffffff16905081600b60006101000a81548173ffffffffffffffffffffffffffffffffffffffff021916908373ffffffffffffffffffffffffffffffffffffffff1602179055508173ffffffffffffffffffffffffffffffffffffffff168173ffffffffffffffffffffffffffffffffffffffff167f8be0079c531659141344cd1fd0a4f28419497f9722a3daafe3b4186f6b6457e060405160405180910390a35050565b82805482825590600052602060002090810192821562003243579160200282015b82811115620032425782518290805190602001906200323192919062003459565b509160200191906001019062003210565b5b509050620032529190620034ea565b5090565b828054828255906000526020600020908101928215620032aa579160200282015b82811115620032a95782518290805190602001906200329892919062003459565b509160200191906001019062003277565b5b509050620032b99190620034ea565b5090565b82805482825590600052602060002090810192821562003311579160200282015b8281111562003310578251829080519060200190620032ff92919062003459565b5091602001919060010190620032de565b5b509050620033209190620034ea565b5090565b82805482825590600052602060002090810192821562003378579160200282015b82811115620033775782518290805190602001906200336692919062003459565b509160200191906001019062003345565b5b509050620033879190620034ea565b5090565b828054828255906000526020600020908101928215620033df579160200282015b82811115620033de578251829080519060200190620033cd92919062003459565b5091602001919060010190620033ac565b5b509050620033ee9190620034ea565b5090565b82805482825590600052602060002090810192821562003446579160200282015b82811115620034455782518290805190602001906200343492919062003459565b509160200191906001019062003413565b5b509050620034559190620034ea565b5090565b828054620034679062003577565b90600052602060002090601f0160209004810192826200348b5760008555620034d7565b82601f10620034a657805160ff1916838001178555620034d7565b82800160010185558215620034d7579182015b82811115620034d6578251825591602001919060010190620034b9565b5b509050620034e6919062003512565b5090565b5b808211156200350e576000818162003504919062003531565b50600101620034eb565b5090565b5b808211156200352d57600081600090555060010162003513565b5090565b5080546200353f9062003577565b6000825580601f1062003553575062003574565b601f01602090049060005260206000209081019062003573919062003512565b5b50565b600060028204905060018216806200359057607f821691505b60208210811415620035a757620035a6620035ad565b5b50919050565b7f4e487b7100000000000000000000000000000000000000000000000000000000600052602260045260246000fd5b6159ef80620035ec6000396000f3fe608060405234801561001057600080fd5b50600436106101cf5760003560e01c806370a0823111610104578063a22cb465116100a2578063d47f269e11610071578063d47f269e1461058a578063e985e9c5146105ba578063ef68075a146105ea578063f2fde38b1461061a576101cf565b8063a22cb465146104f2578063b88d4fde1461050e578063c08a5dd51461052a578063c87b56dd1461055a576101cf565b806395d89b41116100de57806395d89b41146104445780639720c969146104625780639bdc1b69146104925780639e41b73f146104c2576101cf565b806370a08231146103ec578063715018a61461041c5780638da5cb5b14610426576101cf565b80632f745c59116101715780634ed73d281161014b5780634ed73d28146103405780634f6ccce71461035c5780636352211e1461038c57806367209aa8146103bc576101cf565b80632f745c59146102d8578063379607f51461030857806342842e0e14610324576101cf565b8063095ea7b3116101ad578063095ea7b3146102525780630e99990d1461026e57806318160ddd1461029e57806323b872dd146102bc576101cf565b806301ffc9a7146101d457806306fdde0314610204578063081812fc14610222575b600080fd5b6101ee60048036038101906101e991906140c6565b610636565b6040516101fb9190614886565b60405180910390f35b61020c6106b0565b60405161021991906148a1565b60405180910390f35b61023c60048036038101906102379190614118565b610742565b604051610249919061481f565b60405180910390f35b61026c60048036038101906102679190614049565b6107c7565b005b61028860048036038101906102839190614118565b6108df565b60405161029591906148a1565b60405180910390f35b6102a66109f9565b6040516102b39190614b03565b60405180910390f35b6102d660048036038101906102d19190613f43565b610a06565b005b6102f260048036038101906102ed9190614049565b610a66565b6040516102ff9190614b03565b60405180910390f35b610322600480360381019061031d9190614118565b610b0b565b005b61033e60048036038101906103399190613f43565b610b75565b005b61035a60048036038101906103559190614085565b610b95565b005b61037660048036038101906103719190614118565b610c5f565b6040516103839190614b03565b60405180910390f35b6103a660048036038101906103a19190614118565b610cf6565b6040516103b3919061481f565b60405180910390f35b6103d660048036038101906103d19190614118565b610da8565b6040516103e391906148a1565b60405180910390f35b61040660048036038101906104019190613ede565b610ec2565b6040516104139190614b03565b60405180910390f35b610424610f7a565b005b61042e611002565b60405161043b919061481f565b60405180910390f35b61044c61102c565b60405161045991906148a1565b60405180910390f35b61047c60048036038101906104779190614118565b6110be565b60405161048991906148a1565b60405180910390f35b6104ac60048036038101906104a79190614118565b6111d8565b6040516104b991906148a1565b60405180910390f35b6104dc60048036038101906104d79190614118565b6112f2565b6040516104e991906148a1565b60405180910390f35b61050c6004803603810190610507919061400d565b61140c565b005b61052860048036038101906105239190613f92565b61158d565b005b610544600480360381019061053f9190614118565b6115ef565b60405161055191906148a1565b60405180910390f35b610574600480360381019061056f9190614118565b611709565b60405161058191906148a1565b60405180910390f35b6105a4600480360381019061059f9190614118565b6121ab565b6040516105b191906148a1565b60405180910390f35b6105d460048036038101906105cf9190613f07565b6122c5565b6040516105e19190614886565b60405180910390f35b61060460048036038101906105ff9190614118565b612359565b60405161061191906148a1565b60405180910390f35b610634600480360381019061062f9190613ede565b612473565b005b60007f780e9d63000000000000000000000000000000000000000000000000000000007bffffffffffffffffffffffffffffffffffffffffffffffffffffffff1916827bffffffffffffffffffffffffffffffffffffffffffffffffffffffff191614806106a957506106a88261256b565b5b9050919050565b6060600080546106bf90614dc3565b80601f01602080910402602001604051908101604052809291908181526020018280546106eb90614dc3565b80156107385780601f1061070d57610100808354040283529160200191610738565b820191906000526020600020905b81548152906001019060200180831161071b57829003601f168201915b5050505050905090565b600061074d8261264d565b61078c576040517f08c379a000000000000000000000000000000000000000000000000000000000815260040161078390614a23565b60405180910390fd5b6004600083815260200190815260200160002060009054906101000a900473ffffffffffffffffffffffffffffffffffffffff169050919050565b60006107d282610cf6565b90508073ffffffffffffffffffffffffffffffffffffffff168373ffffffffffffffffffffffffffffffffffffffff161415610843576040517f08c379a000000000000000000000000000000000000000000000000000000000815260040161083a90614a83565b60405180910390fd5b8073ffffffffffffffffffffffffffffffffffffffff166108626126b9565b73ffffffffffffffffffffffffffffffffffffffff16148061089157506108908161088b6126b9565b6122c5565b5b6108d0576040517f08c379a00000000000000000000000000000000000000000000000000000000081526004016108c7906149a3565b60405180910390fd5b6108da83836126c1565b505050565b60606109f2826040518060400160405280600481526020017f464f4f54000000000000000000000000000000000000000000000000000000008152506010805480602002602001604051908101604052809291908181526020016000905b828210156109e957838290600052602060002001805461095c90614dc3565b80601f016020809104026020016040519081016040528092919081815260200182805461098890614dc3565b80156109d55780601f106109aa576101008083540402835291602001916109d5565b820191906000526020600020905b8154815290600101906020018083116109b857829003601f168201915b50505050508152602001906001019061093d565b5050505061277a565b9050919050565b6000600880549050905090565b610a17610a116126b9565b82612c42565b610a56576040517f08c379a0000000000000000000000000000000000000000000000000000000008152600401610a4d90614aa3565b60405180910390fd5b610a61838383612d20565b505050565b6000610a7183610ec2565b8210610ab2576040517f08c379a0000000000000000000000000000000000000000000000000000000008152600401610aa9906148c3565b60405180910390fd5b600660008473ffffffffffffffffffffffffffffffffffffffff1673ffffffffffffffffffffffffffffffffffffffff168152602001908152602001600020600083815260200190815260200160002054905092915050565b6002600a541415610b51576040517f08c379a0000000000000000000000000000000000000000000000000000000008152600401610b4890614ae3565b60405180910390fd5b6002600a81905550610b6a610b646126b9565b82612f7c565b6001600a8190555050565b610b908383836040518060200160405280600081525061158d565b505050565b6002600a541415610bdb576040517f08c379a0000000000000000000000000000000000000000000000000000000008152600401610bd290614ae3565b60405180910390fd5b6002600a8190555060005b8151811015610c5357610c40610bfa6126b9565b838381518110610c33577f4e487b7100000000000000000000000000000000000000000000000000000000600052603260045260246000fd5b6020026020010151612f7c565b8080610c4b90614e26565b915050610be6565b506001600a8190555050565b6000610c696109f9565b8210610caa576040517f08c379a0000000000000000000000000000000000000000000000000000000008152600401610ca190614ac3565b60405180910390fd5b60088281548110610ce4577f4e487b7100000000000000000000000000000000000000000000000000000000600052603260045260246000fd5b90600052602060002001549050919050565b6000806002600084815260200190815260200160002060009054906101000a900473ffffffffffffffffffffffffffffffffffffffff169050600073ffffffffffffffffffffffffffffffffffffffff168173ffffffffffffffffffffffffffffffffffffffff161415610d9f576040517f08c379a0000000000000000000000000000000000000000000000000000000008152600401610d96906149e3565b60405180910390fd5b80915050919050565b6060610ebb826040518060400160405280600481526020017f4e45434b000000000000000000000000000000000000000000000000000000008152506012805480602002602001604051908101604052809291908181526020016000905b82821015610eb2578382906000526020600020018054610e2590614dc3565b80601f0160208091040260200160405190810160405280929190818152602001828054610e5190614dc3565b8015610e9e5780601f10610e7357610100808354040283529160200191610e9e565b820191906000526020600020905b815481529060010190602001808311610e8157829003601f168201915b505050505081526020019060010190610e06565b5050505061277a565b9050919050565b60008073ffffffffffffffffffffffffffffffffffffffff168273ffffffffffffffffffffffffffffffffffffffff161415610f33576040517f08c379a0000000000000000000000000000000000000000000000000000000008152600401610f2a906149c3565b60405180910390fd5b600360008373ffffffffffffffffffffffffffffffffffffffff1673ffffffffffffffffffffffffffffffffffffffff168152602001908152602001600020549050919050565b610f826126b9565b73ffffffffffffffffffffffffffffffffffffffff16610fa0611002565b73ffffffffffffffffffffffffffffffffffffffff1614610ff6576040517f08c379a0000000000000000000000000000000000000000000000000000000008152600401610fed90614a43565b60405180910390fd5b6110006000612f9a565b565b6000600b60009054906101000a900473ffffffffffffffffffffffffffffffffffffffff16905090565b60606001805461103b90614dc3565b80601f016020809104026020016040519081016040528092919081815260200182805461106790614dc3565b80156110b45780601f10611089576101008083540402835291602001916110b4565b820191906000526020600020905b81548152906001019060200180831161109757829003601f168201915b5050505050905090565b60606111d1826040518060400160405280600481526020017f4845414400000000000000000000000000000000000000000000000000000000815250600e805480602002602001604051908101604052809291908181526020016000905b828210156111c857838290600052602060002001805461113b90614dc3565b80601f016020809104026020016040519081016040528092919081815260200182805461116790614dc3565b80156111b45780601f10611189576101008083540402835291602001916111b4565b820191906000526020600020905b81548152906001019060200180831161119757829003601f168201915b50505050508152602001906001019061111c565b5050505061277a565b9050919050565b60606112eb826040518060400160405280600581526020017f5741495354000000000000000000000000000000000000000000000000000000815250600f805480602002602001604051908101604052809291908181526020016000905b828210156112e257838290600052602060002001805461125590614dc3565b80601f016020809104026020016040519081016040528092919081815260200182805461128190614dc3565b80156112ce5780601f106112a3576101008083540402835291602001916112ce565b820191906000526020600020905b8154815290600101906020018083116112b157829003601f168201915b505050505081526020019060010190611236565b5050505061277a565b9050919050565b6060611405826040518060400160405280600681526020017f574541504f4e0000000000000000000000000000000000000000000000000000815250600c805480602002602001604051908101604052809291908181526020016000905b828210156113fc57838290600052602060002001805461136f90614dc3565b80601f016020809104026020016040519081016040528092919081815260200182805461139b90614dc3565b80156113e85780601f106113bd576101008083540402835291602001916113e8565b820191906000526020600020905b8154815290600101906020018083116113cb57829003601f168201915b505050505081526020019060010190611350565b5050505061277a565b9050919050565b6114146126b9565b73ffffffffffffffffffffffffffffffffffffffff168273ffffffffffffffffffffffffffffffffffffffff161415611482576040517f08c379a000000000000000000000000000000000000000000000000000000000815260040161147990614963565b60405180910390fd5b806005600061148f6126b9565b73ffffffffffffffffffffffffffffffffffffffff1673ffffffffffffffffffffffffffffffffffffffff16815260200190815260200160002060008473ffffffffffffffffffffffffffffffffffffffff1673ffffffffffffffffffffffffffffffffffffffff16815260200190815260200160002060006101000a81548160ff0219169083151502179055508173ffffffffffffffffffffffffffffffffffffffff1661153c6126b9565b73ffffffffffffffffffffffffffffffffffffffff167f17307eab39ab6107e8899845ad3d59bd9653f200f220920489ca2b5937696c31836040516115819190614886565b60405180910390a35050565b61159e6115986126b9565b83612c42565b6115dd576040517f08c379a00000000000000000000000000000000000000000000000000000000081526004016115d490614aa3565b60405180910390fd5b6115e984848484613060565b50505050565b6060611702826040518060400160405280600481526020017f52494e47000000000000000000000000000000000000000000000000000000008152506013805480602002602001604051908101604052809291908181526020016000905b828210156116f957838290600052602060002001805461166c90614dc3565b80601f016020809104026020016040519081016040528092919081815260200182805461169890614dc3565b80156116e55780601f106116ba576101008083540402835291602001916116e5565b820191906000526020600020905b8154815290600101906020018083116116c857829003601f168201915b50505050508152602001906001019061164d565b5050505061277a565b9050919050565b6060611713613d28565b60405180610120016040528060fd815260200161582c60fd913981600060118110611767577f4e487b7100000000000000000000000000000000000000000000000000000000600052603260045260246000fd5b6020020181905250611778836112f2565b816001601181106117b2577f4e487b7100000000000000000000000000000000000000000000000000000000600052603260045260246000fd5b6020020181905250604051806060016040528060288152602001615992602891398160026011811061180d577f4e487b7100000000000000000000000000000000000000000000000000000000600052603260045260246000fd5b602002018190525061181e83612359565b81600360118110611858577f4e487b7100000000000000000000000000000000000000000000000000000000600052603260045260246000fd5b602002018190525060405180606001604052806028815260200161576160289139816004601181106118b3577f4e487b7100000000000000000000000000000000000000000000000000000000600052603260045260246000fd5b60200201819052506118c4836110be565b816005601181106118fe577f4e487b7100000000000000000000000000000000000000000000000000000000600052603260045260246000fd5b60200201819052506040518060600160405280602881526020016157db6028913981600660118110611959577f4e487b7100000000000000000000000000000000000000000000000000000000600052603260045260246000fd5b602002018190525061196a836111d8565b816007601181106119a4577f4e487b7100000000000000000000000000000000000000000000000000000000600052603260045260246000fd5b602002018190525060405180606001604052806029815260200161580360299139816008601181106119ff577f4e487b7100000000000000000000000000000000000000000000000000000000600052603260045260246000fd5b6020020181905250611a10836108df565b81600960118110611a4a577f4e487b7100000000000000000000000000000000000000000000000000000000600052603260045260246000fd5b60200201819052506040518060600160405280602981526020016157b26029913981600a60118110611aa5577f4e487b7100000000000000000000000000000000000000000000000000000000600052603260045260246000fd5b6020020181905250611ab6836121ab565b81600b60118110611af0577f4e487b7100000000000000000000000000000000000000000000000000000000600052603260045260246000fd5b60200201819052506040518060600160405280602981526020016159296029913981600c60118110611b4b577f4e487b7100000000000000000000000000000000000000000000000000000000600052603260045260246000fd5b6020020181905250611b5c83610da8565b81600d60118110611b96577f4e487b7100000000000000000000000000000000000000000000000000000000600052603260045260246000fd5b60200201819052506040518060600160405280602981526020016157896029913981600e60118110611bf1577f4e487b7100000000000000000000000000000000000000000000000000000000600052603260045260246000fd5b6020020181905250611c02836115ef565b81600f60118110611c3c577f4e487b7100000000000000000000000000000000000000000000000000000000600052603260045260246000fd5b60200201819052506040518060400160405280600d81526020017f3c2f746578743e3c2f7376673e0000000000000000000000000000000000000081525081601060118110611cb4577f4e487b7100000000000000000000000000000000000000000000000000000000600052603260045260246000fd5b6020020181905250600081600060118110611cf8577f4e487b7100000000000000000000000000000000000000000000000000000000600052603260045260246000fd5b602002015182600160118110611d37577f4e487b7100000000000000000000000000000000000000000000000000000000600052603260045260246000fd5b602002015183600260118110611d76577f4e487b7100000000000000000000000000000000000000000000000000000000600052603260045260246000fd5b602002015184600360118110611db5577f4e487b7100000000000000000000000000000000000000000000000000000000600052603260045260246000fd5b602002015185600460118110611df4577f4e487b7100000000000000000000000000000000000000000000000000000000600052603260045260246000fd5b602002015186600560118110611e33577f4e487b7100000000000000000000000000000000000000000000000000000000600052603260045260246000fd5b602002015187600660118110611e72577f4e487b7100000000000000000000000000000000000000000000000000000000600052603260045260246000fd5b602002015188600760118110611eb1577f4e487b7100000000000000000000000000000000000000000000000000000000600052603260045260246000fd5b602002015189600860118110611ef0577f4e487b7100000000000000000000000000000000000000000000000000000000600052603260045260246000fd5b6020020151604051602001611f0d9998979695949392919061465b565b60405160208183030381529060405290508082600960118110611f59577f4e487b7100000000000000000000000000000000000000000000000000000000600052603260045260246000fd5b602002015183600a60118110611f98577f4e487b7100000000000000000000000000000000000000000000000000000000600052603260045260246000fd5b602002015184600b60118110611fd7577f4e487b7100000000000000000000000000000000000000000000000000000000600052603260045260246000fd5b602002015185600c60118110612016577f4e487b7100000000000000000000000000000000000000000000000000000000600052603260045260246000fd5b602002015186600d60118110612055577f4e487b7100000000000000000000000000000000000000000000000000000000600052603260045260246000fd5b602002015187600e60118110612094577f4e487b7100000000000000000000000000000000000000000000000000000000600052603260045260246000fd5b602002015188600f601181106120d3577f4e487b7100000000000000000000000000000000000000000000000000000000600052603260045260246000fd5b602002015189601060118110612112577f4e487b7100000000000000000000000000000000000000000000000000000000600052603260045260246000fd5b602002015160405160200161212f9998979695949392919061465b565b6040516020818303038152906040529050600061217c61214e866130bc565b61215784613269565b6040516020016121689291906147b8565b604051602081830303815290604052613269565b90508060405160200161218f91906147fd565b6040516020818303038152906040529150819350505050919050565b60606122be826040518060400160405280600481526020017f48414e44000000000000000000000000000000000000000000000000000000008152506011805480602002602001604051908101604052809291908181526020016000905b828210156122b557838290600052602060002001805461222890614dc3565b80601f016020809104026020016040519081016040528092919081815260200182805461225490614dc3565b80156122a15780601f10612276576101008083540402835291602001916122a1565b820191906000526020600020905b81548152906001019060200180831161228457829003601f168201915b505050505081526020019060010190612209565b5050505061277a565b9050919050565b6000600560008473ffffffffffffffffffffffffffffffffffffffff1673ffffffffffffffffffffffffffffffffffffffff16815260200190815260200160002060008373ffffffffffffffffffffffffffffffffffffffff1673ffffffffffffffffffffffffffffffffffffffff16815260200190815260200160002060009054906101000a900460ff16905092915050565b606061246c826040518060400160405280600581526020017f4348455354000000000000000000000000000000000000000000000000000000815250600d805480602002602001604051908101604052809291908181526020016000905b828210156124635783829060005260206000200180546123d690614dc3565b80601f016020809104026020016040519081016040528092919081815260200182805461240290614dc3565b801561244f5780601f106124245761010080835404028352916020019161244f565b820191906000526020600020905b81548152906001019060200180831161243257829003601f168201915b5050505050815260200190600101906123b7565b5050505061277a565b9050919050565b61247b6126b9565b73ffffffffffffffffffffffffffffffffffffffff16612499611002565b73ffffffffffffffffffffffffffffffffffffffff16146124ef576040517f08c379a00000000000000000000000000000000000000000000000000000000081526004016124e690614a43565b60405180910390fd5b600073ffffffffffffffffffffffffffffffffffffffff168173ffffffffffffffffffffffffffffffffffffffff16141561255f576040517f08c379a000000000000000000000000000000000000000000000000000000000815260040161255690614903565b60405180910390fd5b61256881612f9a565b50565b60007f80ac58cd000000000000000000000000000000000000000000000000000000007bffffffffffffffffffffffffffffffffffffffffffffffffffffffff1916827bffffffffffffffffffffffffffffffffffffffffffffffffffffffff1916148061263657507f5b5e139f000000000000000000000000000000000000000000000000000000007bffffffffffffffffffffffffffffffffffffffffffffffffffffffff1916827bffffffffffffffffffffffffffffffffffffffffffffffffffffffff1916145b80612646575061264582613427565b5b9050919050565b60008073ffffffffffffffffffffffffffffffffffffffff166002600084815260200190815260200160002060009054906101000a900473ffffffffffffffffffffffffffffffffffffffff1673ffffffffffffffffffffffffffffffffffffffff1614159050919050565b600033905090565b816004600083815260200190815260200160002060006101000a81548173ffffffffffffffffffffffffffffffffffffffff021916908373ffffffffffffffffffffffffffffffffffffffff160217905550808273ffffffffffffffffffffffffffffffffffffffff1661273483610cf6565b73ffffffffffffffffffffffffffffffffffffffff167f8c5be1e5ebec7d5bd14f71427d1e84f3dd0314c0f7b2291e5b200ac8c7c3b92560405160405180910390a45050565b606060006127b08461278b876130bc565b60405160200161279c929190614637565b604051602081830303815290604052613491565b90506000838451836127c29190614e6f565b815181106127f9577f4e487b7100000000000000000000000000000000000000000000000000000000600052603260045260246000fd5b6020026020010151905060006015836128129190614e6f565b9050600e811115612894578160148080549050856128309190614e6f565b81548110612867577f4e487b7100000000000000000000000000000000000000000000000000000000600052603260045260246000fd5b906000526020600020016040516020016128829291906146da565b60405160208183030381529060405291505b60138110612c35576128a4613d50565b60158080549050856128b69190614e6f565b815481106128ed577f4e487b7100000000000000000000000000000000000000000000000000000000600052603260045260246000fd5b90600052602060002001805461290290614dc3565b80601f016020809104026020016040519081016040528092919081815260200182805461292e90614dc3565b801561297b5780601f106129505761010080835404028352916020019161297b565b820191906000526020600020905b81548152906001019060200180831161295e57829003601f168201915b5050505050816000600281106129ba577f4e487b7100000000000000000000000000000000000000000000000000000000600052603260045260246000fd5b602002018190525060168080549050856129d49190614e6f565b81548110612a0b577f4e487b7100000000000000000000000000000000000000000000000000000000600052603260045260246000fd5b906000526020600020018054612a2090614dc3565b80601f0160208091040260200160405190810160405280929190818152602001828054612a4c90614dc3565b8015612a995780601f10612a6e57610100808354040283529160200191612a99565b820191906000526020600020905b815481529060010190602001808311612a7c57829003601f168201915b505050505081600160028110612ad8577f4e487b7100000000000000000000000000000000000000000000000000000000600052603260045260246000fd5b60200201819052506013821415612b905780600060028110612b23577f4e487b7100000000000000000000000000000000000000000000000000000000600052603260045260246000fd5b602002015181600160028110612b62577f4e487b7100000000000000000000000000000000000000000000000000000000600052603260045260246000fd5b602002015184604051602001612b7a93929190614709565b6040516020818303038152906040529250612c33565b80600060028110612bca577f4e487b7100000000000000000000000000000000000000000000000000000000600052603260045260246000fd5b602002015181600160028110612c09577f4e487b7100000000000000000000000000000000000000000000000000000000600052603260045260246000fd5b602002015184604051602001612c219392919061475b565b60405160208183030381529060405292505b505b8193505050509392505050565b6000612c4d8261264d565b612c8c576040517f08c379a0000000000000000000000000000000000000000000000000000000008152600401612c8390614983565b60405180910390fd5b6000612c9783610cf6565b90508073ffffffffffffffffffffffffffffffffffffffff168473ffffffffffffffffffffffffffffffffffffffff161480612d0657508373ffffffffffffffffffffffffffffffffffffffff16612cee84610742565b73ffffffffffffffffffffffffffffffffffffffff16145b80612d175750612d1681856122c5565b5b91505092915050565b8273ffffffffffffffffffffffffffffffffffffffff16612d4082610cf6565b73ffffffffffffffffffffffffffffffffffffffff1614612d96576040517f08c379a0000000000000000000000000000000000000000000000000000000008152600401612d8d90614a63565b60405180910390fd5b600073ffffffffffffffffffffffffffffffffffffffff168273ffffffffffffffffffffffffffffffffffffffff161415612e06576040517f08c379a0000000000000000000000000000000000000000000000000000000008152600401612dfd90614943565b60405180910390fd5b612e118383836134c4565b612e1c6000826126c1565b6001600360008573ffffffffffffffffffffffffffffffffffffffff1673ffffffffffffffffffffffffffffffffffffffff1681526020019081526020016000206000828254612e6c9190614cd9565b925050819055506001600360008473ffffffffffffffffffffffffffffffffffffffff1673ffffffffffffffffffffffffffffffffffffffff1681526020019081526020016000206000828254612ec39190614bf8565b92505081905550816002600083815260200190815260200160002060006101000a81548173ffffffffffffffffffffffffffffffffffffffff021916908373ffffffffffffffffffffffffffffffffffffffff160217905550808273ffffffffffffffffffffffffffffffffffffffff168473ffffffffffffffffffffffffffffffffffffffff167fddf252ad1be2c89b69c2b068fc378daa952ba7f163c4a11628f55a4df523b3ef60405160405180910390a4505050565b612f968282604051806020016040528060008152506135d8565b5050565b6000600b60009054906101000a900473ffffffffffffffffffffffffffffffffffffffff16905081600b60006101000a81548173ffffffffffffffffffffffffffffffffffffffff021916908373ffffffffffffffffffffffffffffffffffffffff1602179055508173ffffffffffffffffffffffffffffffffffffffff168173ffffffffffffffffffffffffffffffffffffffff167f8be0079c531659141344cd1fd0a4f28419497f9722a3daafe3b4186f6b6457e060405160405180910390a35050565b61306b848484612d20565b61307784848484613633565b6130b6576040517f08c379a00000000000000000000000000000000000000000000000000000000081526004016130ad906148e3565b60405180910390fd5b50505050565b60606000821415613104576040518060400160405280600181526020017f30000000000000000000000000000000000000000000000000000000000000008152509050613264565b600082905060005b6000821461313657808061311f90614e26565b915050600a8261312f9190614c4e565b915061310c565b60008167ffffffffffffffff811115613178577f4e487b7100000000000000000000000000000000000000000000000000000000600052604160045260246000fd5b6040519080825280601f01601f1916602001820160405280156131aa5781602001600182028036833780820191505090505b5090505b6000851461325d576001826131c39190614cd9565b9150600a856131d29190614e6f565b60306131de9190614bf8565b60f81b81838151811061321a577f4e487b7100000000000000000000000000000000000000000000000000000000600052603260045260246000fd5b60200101907effffffffffffffffffffffffffffffffffffffffffffffffffffffffffffff1916908160001a905350600a856132569190614c4e565b94506131ae565b8093505050505b919050565b606060008251905060008114156132925760405180602001604052806000815250915050613422565b600060036002836132a39190614bf8565b6132ad9190614c4e565b60046132b99190614c7f565b905060006020826132ca9190614bf8565b67ffffffffffffffff811115613309577f4e487b7100000000000000000000000000000000000000000000000000000000600052604160045260246000fd5b6040519080825280601f01601f19166020018201604052801561333b5781602001600182028036833780820191505090505b5090506000604051806060016040528060408152602001615952604091399050600181016020830160005b868110156133df5760038101905062ffffff818a015116603f8160121c168401518060081b905060ff603f83600c1c1686015116810190508060081b905060ff603f8360061c1686015116810190508060081b905060ff603f831686015116810190508060e01b90508084526004840193505050613366565b5060038606600181146133f9576002811461340957613414565b613d3d60f01b6002830352613414565b603d60f81b60018303525b508484525050819450505050505b919050565b60007f01ffc9a7000000000000000000000000000000000000000000000000000000007bffffffffffffffffffffffffffffffffffffffffffffffffffffffff1916827bffffffffffffffffffffffffffffffffffffffffffffffffffffffff1916149050919050565b6000816040516020016134a49190614620565b6040516020818303038152906040528051906020012060001c9050919050565b6134cf8383836137ca565b600073ffffffffffffffffffffffffffffffffffffffff168373ffffffffffffffffffffffffffffffffffffffff1614156135125761350d816137cf565b613551565b8173ffffffffffffffffffffffffffffffffffffffff168373ffffffffffffffffffffffffffffffffffffffff16146135505761354f8382613818565b5b5b600073ffffffffffffffffffffffffffffffffffffffff168273ffffffffffffffffffffffffffffffffffffffff1614156135945761358f81613985565b6135d3565b8273ffffffffffffffffffffffffffffffffffffffff168273ffffffffffffffffffffffffffffffffffffffff16146135d2576135d18282613ac8565b5b5b505050565b6135e28383613b47565b6135ef6000848484613633565b61362e576040517f08c379a0000000000000000000000000000000000000000000000000000000008152600401613625906148e3565b60405180910390fd5b505050565b60006136548473ffffffffffffffffffffffffffffffffffffffff16613d15565b156137bd578373ffffffffffffffffffffffffffffffffffffffff1663150b7a0261367d6126b9565b8786866040518563ffffffff1660e01b815260040161369f949392919061483a565b602060405180830381600087803b1580156136b957600080fd5b505af19250505080156136ea57506040513d601f19601f820116820180604052508101906136e791906140ef565b60015b61376d573d806000811461371a576040519150601f19603f3d011682016040523d82523d6000602084013e61371f565b606091505b50600081511415613765576040517f08c379a000000000000000000000000000000000000000000000000000000000815260040161375c906148e3565b60405180910390fd5b805181602001fd5b63150b7a0260e01b7bffffffffffffffffffffffffffffffffffffffffffffffffffffffff1916817bffffffffffffffffffffffffffffffffffffffffffffffffffffffff1916149150506137c2565b600190505b949350505050565b505050565b6008805490506009600083815260200190815260200160002081905550600881908060018154018082558091505060019003906000526020600020016000909190919091505550565b6000600161382584610ec2565b61382f9190614cd9565b9050600060076000848152602001908152602001600020549050818114613914576000600660008673ffffffffffffffffffffffffffffffffffffffff1673ffffffffffffffffffffffffffffffffffffffff168152602001908152602001600020600084815260200190815260200160002054905080600660008773ffffffffffffffffffffffffffffffffffffffff1673ffffffffffffffffffffffffffffffffffffffff168152602001908152602001600020600084815260200190815260200160002081905550816007600083815260200190815260200160002081905550505b6007600084815260200190815260200160002060009055600660008573ffffffffffffffffffffffffffffffffffffffff1673ffffffffffffffffffffffffffffffffffffffff16815260200190815260200160002060008381526020019081526020016000206000905550505050565b600060016008805490506139999190614cd9565b90506000600960008481526020019081526020016000205490506000600883815481106139ef577f4e487b7100000000000000000000000000000000000000000000000000000000600052603260045260246000fd5b906000526020600020015490508060088381548110613a37577f4e487b7100000000000000000000000000000000000000000000000000000000600052603260045260246000fd5b906000526020600020018190555081600960008381526020019081526020016000208190555060096000858152602001908152602001600020600090556008805480613aac577f4e487b7100000000000000000000000000000000000000000000000000000000600052603160045260246000fd5b6001900381819060005260206000200160009055905550505050565b6000613ad383610ec2565b905081600660008573ffffffffffffffffffffffffffffffffffffffff1673ffffffffffffffffffffffffffffffffffffffff168152602001908152602001600020600083815260200190815260200160002081905550806007600084815260200190815260200160002081905550505050565b600073ffffffffffffffffffffffffffffffffffffffff168273ffffffffffffffffffffffffffffffffffffffff161415613bb7576040517f08c379a0000000000000000000000000000000000000000000000000000000008152600401613bae90614a03565b60405180910390fd5b613bc08161264d565b15613c00576040517f08c379a0000000000000000000000000000000000000000000000000000000008152600401613bf790614923565b60405180910390fd5b613c0c600083836134c4565b6001600360008473ffffffffffffffffffffffffffffffffffffffff1673ffffffffffffffffffffffffffffffffffffffff1681526020019081526020016000206000828254613c5c9190614bf8565b92505081905550816002600083815260200190815260200160002060006101000a81548173ffffffffffffffffffffffffffffffffffffffff021916908373ffffffffffffffffffffffffffffffffffffffff160217905550808273ffffffffffffffffffffffffffffffffffffffff16600073ffffffffffffffffffffffffffffffffffffffff167fddf252ad1be2c89b69c2b068fc378daa952ba7f163c4a11628f55a4df523b3ef60405160405180910390a45050565b600080823b905060008111915050919050565b6040518061022001604052806011905b6060815260200190600190039081613d385790505090565b60405180604001604052806002905b6060815260200190600190039081613d5f5790505090565b6000613d8a613d8584614b43565b614b1e565b90508083825260208201905082856020860282011115613da957600080fd5b60005b85811015613dd95781613dbf8882613ec9565b845260208401935060208301925050600181019050613dac565b5050509392505050565b6000613df6613df184614b6f565b614b1e565b905082815260208101848484011115613e0e57600080fd5b613e19848285614d81565b509392505050565b600081359050613e3081615704565b92915050565b600082601f830112613e4757600080fd5b8135613e57848260208601613d77565b91505092915050565b600081359050613e6f8161571b565b92915050565b600081359050613e8481615732565b92915050565b600081519050613e9981615732565b92915050565b600082601f830112613eb057600080fd5b8135613ec0848260208601613de3565b91505092915050565b600081359050613ed881615749565b92915050565b600060208284031215613ef057600080fd5b6000613efe84828501613e21565b91505092915050565b60008060408385031215613f1a57600080fd5b6000613f2885828601613e21565b9250506020613f3985828601613e21565b9150509250929050565b600080600060608486031215613f5857600080fd5b6000613f6686828701613e21565b9350506020613f7786828701613e21565b9250506040613f8886828701613ec9565b9150509250925092565b60008060008060808587031215613fa857600080fd5b6000613fb687828801613e21565b9450506020613fc787828801613e21565b9350506040613fd887828801613ec9565b925050606085013567ffffffffffffffff811115613ff557600080fd5b61400187828801613e9f565b91505092959194509250565b6000806040838503121561402057600080fd5b600061402e85828601613e21565b925050602061403f85828601613e60565b9150509250929050565b6000806040838503121561405c57600080fd5b600061406a85828601613e21565b925050602061407b85828601613ec9565b9150509250929050565b60006020828403121561409757600080fd5b600082013567ffffffffffffffff8111156140b157600080fd5b6140bd84828501613e36565b91505092915050565b6000602082840312156140d857600080fd5b60006140e684828501613e75565b91505092915050565b60006020828403121561410157600080fd5b600061410f84828501613e8a565b91505092915050565b60006020828403121561412a57600080fd5b600061413884828501613ec9565b91505092915050565b61414a81614d0d565b82525050565b61415981614d1f565b82525050565b600061416a82614bb5565b6141748185614bcb565b9350614184818560208601614d90565b61418d81614f5c565b840191505092915050565b60006141a382614bc0565b6141ad8185614bdc565b93506141bd818560208601614d90565b6141c681614f5c565b840191505092915050565b60006141dc82614bc0565b6141e68185614bed565b93506141f6818560208601614d90565b80840191505092915050565b6000815461420f81614dc3565b6142198186614bed565b94506001821660008114614234576001811461424557614278565b60ff19831686528186019350614278565b61424e85614ba0565b60005b8381101561427057815481890152600182019150602081019050614251565b838801955050505b50505092915050565b600061428e602b83614bdc565b915061429982614f6d565b604082019050919050565b60006142b1603283614bdc565b91506142bc82614fbc565b604082019050919050565b60006142d4602683614bdc565b91506142df8261500b565b604082019050919050565b60006142f7601c83614bdc565b91506143028261505a565b602082019050919050565b600061431a602483614bdc565b915061432582615083565b604082019050919050565b600061433d601983614bdc565b9150614348826150d2565b602082019050919050565b6000614360600283614bed565b915061436b826150fb565b600282019050919050565b6000614383602c83614bdc565b915061438e82615124565b604082019050919050565b60006143a6600183614bed565b91506143b182615173565b600182019050919050565b60006143c9603883614bdc565b91506143d48261519c565b604082019050919050565b60006143ec600183614bed565b91506143f7826151eb565b600182019050919050565b600061440f602a83614bdc565b915061441a82615214565b604082019050919050565b6000614432602983614bdc565b915061443d82615263565b604082019050919050565b6000614455600283614bed565b9150614460826152b2565b600282019050919050565b6000614478600f83614bed565b9150614483826152db565b600f82019050919050565b600061449b602083614bdc565b91506144a682615304565b602082019050919050565b60006144be602c83614bdc565b91506144c98261532d565b604082019050919050565b60006144e1602083614bdc565b91506144ec8261537c565b602082019050919050565b6000614504602983614bdc565b915061450f826153a5565b604082019050919050565b6000614527602183614bdc565b9150614532826153f4565b604082019050919050565b600061454a601d83614bed565b915061455582615443565b601d82019050919050565b600061456d600383614bed565b91506145788261546c565b600382019050919050565b6000614590603183614bdc565b915061459b82615495565b604082019050919050565b60006145b3602c83614bdc565b91506145be826154e4565b604082019050919050565b60006145d6601f83614bdc565b91506145e182615533565b602082019050919050565b60006145fa61015f83614bed565b91506146058261555c565b61015f82019050919050565b61461a81614d77565b82525050565b600061462c82846141d1565b915081905092915050565b600061464382856141d1565b915061464f82846141d1565b91508190509392505050565b6000614667828c6141d1565b9150614673828b6141d1565b915061467f828a6141d1565b915061468b82896141d1565b915061469782886141d1565b91506146a382876141d1565b91506146af82866141d1565b91506146bb82856141d1565b91506146c782846141d1565b91508190509a9950505050505050505050565b60006146e682856141d1565b91506146f182614399565b91506146fd8284614202565b91508190509392505050565b6000614714826143df565b915061472082866141d1565b915061472b82614399565b915061473782856141d1565b915061474282614353565b915061474e82846141d1565b9150819050949350505050565b6000614766826143df565b915061477282866141d1565b915061477d82614399565b915061478982856141d1565b915061479482614353565b91506147a082846141d1565b91506147ab82614560565b9150819050949350505050565b60006147c38261446b565b91506147cf82856141d1565b91506147da826145ec565b91506147e682846141d1565b91506147f182614448565b91508190509392505050565b60006148088261453d565b915061481482846141d1565b915081905092915050565b60006020820190506148346000830184614141565b92915050565b600060808201905061484f6000830187614141565b61485c6020830186614141565b6148696040830185614611565b818103606083015261487b818461415f565b905095945050505050565b600060208201905061489b6000830184614150565b92915050565b600060208201905081810360008301526148bb8184614198565b905092915050565b600060208201905081810360008301526148dc81614281565b9050919050565b600060208201905081810360008301526148fc816142a4565b9050919050565b6000602082019050818103600083015261491c816142c7565b9050919050565b6000602082019050818103600083015261493c816142ea565b9050919050565b6000602082019050818103600083015261495c8161430d565b9050919050565b6000602082019050818103600083015261497c81614330565b9050919050565b6000602082019050818103600083015261499c81614376565b9050919050565b600060208201905081810360008301526149bc816143bc565b9050919050565b600060208201905081810360008301526149dc81614402565b9050919050565b600060208201905081810360008301526149fc81614425565b9050919050565b60006020820190508181036000830152614a1c8161448e565b9050919050565b60006020820190508181036000830152614a3c816144b1565b9050919050565b60006020820190508181036000830152614a5c816144d4565b9050919050565b60006020820190508181036000830152614a7c816144f7565b9050919050565b60006020820190508181036000830152614a9c8161451a565b9050919050565b60006020820190508181036000830152614abc81614583565b9050919050565b60006020820190508181036000830152614adc816145a6565b9050919050565b60006020820190508181036000830152614afc816145c9565b9050919050565b6000602082019050614b186000830184614611565b92915050565b6000614b28614b39565b9050614b348282614df5565b919050565b6000604051905090565b600067ffffffffffffffff821115614b5e57614b5d614f2d565b5b602082029050602081019050919050565b600067ffffffffffffffff821115614b8a57614b89614f2d565b5b614b9382614f5c565b9050602081019050919050565b60008190508160005260206000209050919050565b600081519050919050565b600081519050919050565b600082825260208201905092915050565b600082825260208201905092915050565b600081905092915050565b6000614c0382614d77565b9150614c0e83614d77565b9250827fffffffffffffffffffffffffffffffffffffffffffffffffffffffffffffffff03821115614c4357614c42614ea0565b5b828201905092915050565b6000614c5982614d77565b9150614c6483614d77565b925082614c7457614c73614ecf565b5b828204905092915050565b6000614c8a82614d77565b9150614c9583614d77565b9250817fffffffffffffffffffffffffffffffffffffffffffffffffffffffffffffffff0483118215151615614cce57614ccd614ea0565b5b828202905092915050565b6000614ce482614d77565b9150614cef83614d77565b925082821015614d0257614d01614ea0565b5b828203905092915050565b6000614d1882614d57565b9050919050565b60008115159050919050565b60007fffffffff0000000000000000000000000000000000000000000000000000000082169050919050565b600073ffffffffffffffffffffffffffffffffffffffff82169050919050565b6000819050919050565b82818337600083830152505050565b60005b83811015614dae578082015181840152602081019050614d93565b83811115614dbd576000848401525b50505050565b60006002820490506001821680614ddb57607f821691505b60208210811415614def57614dee614efe565b5b50919050565b614dfe82614f5c565b810181811067ffffffffffffffff82111715614e1d57614e1c614f2d565b5b80604052505050565b6000614e3182614d77565b91507fffffffffffffffffffffffffffffffffffffffffffffffffffffffffffffffff821415614e6457614e63614ea0565b5b600182019050919050565b6000614e7a82614d77565b9150614e8583614d77565b925082614e9557614e94614ecf565b5b828206905092915050565b7f4e487b7100000000000000000000000000000000000000000000000000000000600052601160045260246000fd5b7f4e487b7100000000000000000000000000000000000000000000000000000000600052601260045260246000fd5b7f4e487b7100000000000000000000000000000000000000000000000000000000600052602260045260246000fd5b7f4e487b7100000000000000000000000000000000000000000000000000000000600052604160045260246000fd5b6000601f19601f8301169050919050565b7f455243373231456e756d657261626c653a206f776e657220696e646578206f7560008201527f74206f6620626f756e6473000000000000000000000000000000000000000000602082015250565b7f4552433732313a207472616e7366657220746f206e6f6e20455243373231526560008201527f63656976657220696d706c656d656e7465720000000000000000000000000000602082015250565b7f4f776e61626c653a206e6577206f776e657220697320746865207a65726f206160008201527f6464726573730000000000000000000000000000000000000000000000000000602082015250565b7f4552433732313a20746f6b656e20616c7265616479206d696e74656400000000600082015250565b7f4552433732313a207472616e7366657220746f20746865207a65726f2061646460008201527f7265737300000000000000000000000000000000000000000000000000000000602082015250565b7f4552433732313a20617070726f766520746f2063616c6c657200000000000000600082015250565b7f2220000000000000000000000000000000000000000000000000000000000000600082015250565b7f4552433732313a206f70657261746f7220717565727920666f72206e6f6e657860008201527f697374656e7420746f6b656e0000000000000000000000000000000000000000602082015250565b7f2000000000000000000000000000000000000000000000000000000000000000600082015250565b7f4552433732313a20617070726f76652063616c6c6572206973206e6f74206f7760008201527f6e6572206e6f7220617070726f76656420666f7220616c6c0000000000000000602082015250565b7f2200000000000000000000000000000000000000000000000000000000000000600082015250565b7f4552433732313a2062616c616e636520717565727920666f7220746865207a6560008201527f726f206164647265737300000000000000000000000000000000000000000000602082015250565b7f4552433732313a206f776e657220717565727920666f72206e6f6e657869737460008201527f656e7420746f6b656e0000000000000000000000000000000000000000000000602082015250565b7f227d000000000000000000000000000000000000000000000000000000000000600082015250565b7f7b226e616d65223a202242616720230000000000000000000000000000000000600082015250565b7f4552433732313a206d696e7420746f20746865207a65726f2061646472657373600082015250565b7f4552433732313a20617070726f76656420717565727920666f72206e6f6e657860008201527f697374656e7420746f6b656e0000000000000000000000000000000000000000602082015250565b7f4f776e61626c653a2063616c6c6572206973206e6f7420746865206f776e6572600082015250565b7f4552433732313a207472616e73666572206f6620746f6b656e2074686174206960008201527f73206e6f74206f776e0000000000000000000000000000000000000000000000602082015250565b7f4552433732313a20617070726f76616c20746f2063757272656e74206f776e6560008201527f7200000000000000000000000000000000000000000000000000000000000000602082015250565b7f646174613a6170706c69636174696f6e2f6a736f6e3b6261736536342c000000600082015250565b7f202b310000000000000000000000000000000000000000000000000000000000600082015250565b7f4552433732313a207472616e736665722063616c6c6572206973206e6f74206f60008201527f776e6572206e6f7220617070726f766564000000000000000000000000000000602082015250565b7f455243373231456e756d657261626c653a20676c6f62616c20696e646578206f60008201527f7574206f6620626f756e64730000000000000000000000000000000000000000602082015250565b7f5265656e7472616e637947756172643a207265656e7472616e742063616c6c00600082015250565b7f222c20226465736372697074696f6e223a20224d6f7265204c6f6f742069732060008201527f6164646974696f6e616c2072616e646f6d697a656420616476656e747572657260208201527f20676561722067656e65726174656420616e642073746f726564206f6e20636860408201527f61696e2e204d6178696d756d20737570706c792069732064796e616d69632c2060608201527f696e6372656173696e6720617420312f31307468206f6620457468657265756d60808201527f277320626c6f636b20726174652e2053746174732c20696d616765732c20616e60a08201527f64206f746865722066756e6374696f6e616c6974792061726520696e74656e7460c08201527f696f6e616c6c79206f6d697474656420666f72206f746865727320746f20696e60e08201527f746572707265742e204665656c206672656520746f20757365204d6f7265204c6101008201527f6f6f7420696e20616e792077617920796f752077616e742e222c2022696d61676101208201527f65223a2022646174613a696d6167652f7376672b786d6c3b6261736536342c0061014082015250565b61570d81614d0d565b811461571857600080fd5b50565b61572481614d1f565b811461572f57600080fd5b50565b61573b81614d2b565b811461574657600080fd5b50565b61575281614d77565b811461575d57600080fd5b5056fe3c2f746578743e3c7465787420783d2231302220793d2236302220636c6173733d2262617365223e3c2f746578743e3c7465787420783d2231302220793d223136302220636c6173733d2262617365223e3c2f746578743e3c7465787420783d2231302220793d223132302220636c6173733d2262617365223e3c2f746578743e3c7465787420783d2231302220793d2238302220636c6173733d2262617365223e3c2f746578743e3c7465787420783d2231302220793d223130302220636c6173733d2262617365223e3c73766720786d6c6e733d22687474703a2f2f7777772e77332e6f72672f323030302f73766722207072657365727665417370656374526174696f3d22784d696e594d696e206d656574222076696577426f783d223020302033353020333530223e3c7374796c653e2e62617365207b2066696c6c3a2077686974653b20666f6e742d66616d696c793a2073657269663b20666f6e742d73697a653a20313470783b207d3c2f7374796c653e3c726563742077696474683d223130302522206865696768743d2231303025222066696c6c3d22626c61636b22202f3e3c7465787420783d2231302220793d2232302220636c6173733d2262617365223e3c2f746578743e3c7465787420783d2231302220793d223134302220636c6173733d2262617365223e4142434445464748494a4b4c4d4e4f505152535455565758595a6162636465666768696a6b6c6d6e6f707172737475767778797a303132333435363738392b2f3c2f746578743e3c7465787420783d2231302220793d2234302220636c6173733d2262617365223ea264697066735822122022da7be80fc58756360faf744edd03a0539d126c51ae649bb2766a86d054698d64736f6c63430008040033",
  "linkReferences": {},
  "deployedLinkReferences": {}
}