{
  "_format": "hh-sol-artifact-1",
  "contractName": "PlatinumDistributor",
  "sourceName": "contracts/platDistributor.sol",
  "abi": [
    {
      "inputs": [
        {
          "internalType": "contract PlatinumToken",
          "name": "_platinumToken",
          "type": "address"
        }
      ],
      "stateMutability": "nonpayable",
      "type": "constructor"
    },
    {
      "anonymous": false,
      "inputs": [
        {
          "indexed": true,
          "internalType": "address",
          "name": "previousOwner",
          "type": "address"
        },
        {
          "indexed": true,
          "internalType": "address",
          "name": "newOwner",
          "type": "address"
        }
      ],
      "name": "OwnershipTransferred",
      "type": "event"
    },
    {
      "inputs": [
        {
          "internalType": "address",
          "name": "contractERC721",
          "type": "address"
        }
      ],
      "name": "_getDistributableBurnForDistribution",
      "outputs": [
        {
          "internalType": "bool",
          "name": "",
          "type": "bool"
        }
      ],
      "stateMutability": "view",
      "type": "function"
    },
    {
      "inputs": [
        {
          "internalType": "address",
          "name": "contractERC721",
          "type": "address"
        }
      ],
      "name": "_getDistributableIdLBound",
      "outputs": [
        {
          "internalType": "uint256",
          "name": "",
          "type": "uint256"
        }
      ],
      "stateMutability": "view",
      "type": "function"
    },
    {
      "inputs": [
        {
          "internalType": "address",
          "name": "contractERC721",
          "type": "address"
        }
      ],
      "name": "_getDistributableIdUBound",
      "outputs": [
        {
          "internalType": "uint256",
          "name": "",
          "type": "uint256"
        }
      ],
      "stateMutability": "view",
      "type": "function"
    },
    {
      "inputs": [
        {
          "internalType": "address",
          "name": "contractERC721",
          "type": "address"
        }
      ],
      "name": "_getDistributableTokenPerNFT",
      "outputs": [
        {
          "internalType": "uint256",
          "name": "",
          "type": "uint256"
        }
      ],
      "stateMutability": "view",
      "type": "function"
    },
    {
      "inputs": [
        {
          "internalType": "address",
          "name": "_eligibleERC721",
          "type": "address"
        },
        {
          "internalType": "uint256",
          "name": "_lBoundId",
          "type": "uint256"
        },
        {
          "internalType": "uint256",
          "name": "_uBoundId",
          "type": "uint256"
        },
        {
          "internalType": "uint256",
          "name": "_tokenPerNFT",
          "type": "uint256"
        },
        {
          "internalType": "bool",
          "name": "_burnForDistribution",
          "type": "bool"
        }
      ],
      "name": "addDistributableContract",
      "outputs": [],
      "stateMutability": "nonpayable",
      "type": "function"
    },
    {
      "inputs": [
        {
          "internalType": "address",
          "name": "contractERC721",
          "type": "address"
        },
        {
          "internalType": "uint256[]",
          "name": "tokenId",
          "type": "uint256[]"
        }
      ],
      "name": "claimMulti",
      "outputs": [],
      "stateMutability": "nonpayable",
      "type": "function"
    },
    {
      "inputs": [
        {
          "internalType": "address",
          "name": "contractERC721",
          "type": "address"
        },
        {
          "internalType": "uint256",
          "name": "tokenId",
          "type": "uint256"
        }
      ],
      "name": "claimSingle",
      "outputs": [],
      "stateMutability": "nonpayable",
      "type": "function"
    },
    {
      "inputs": [
        {
          "internalType": "uint256",
          "name": "",
          "type": "uint256"
        },
        {
          "internalType": "address",
          "name": "",
          "type": "address"
        },
        {
          "internalType": "uint256",
          "name": "",
          "type": "uint256"
        }
      ],
      "name": "claimedByTokenId",
      "outputs": [
        {
          "internalType": "bool",
          "name": "",
          "type": "bool"
        }
      ],
      "stateMutability": "view",
      "type": "function"
    },
    {
      "inputs": [
        {
          "internalType": "address",
          "name": "",
          "type": "address"
        }
      ],
      "name": "distributablePools",
      "outputs": [
        {
          "internalType": "uint256",
          "name": "lBoundId",
          "type": "uint256"
        },
        {
          "internalType": "uint256",
          "name": "uBoundId",
          "type": "uint256"
        },
        {
          "internalType": "uint256",
          "name": "tokenPerNFT",
          "type": "uint256"
        },
        {
          "internalType": "bool",
          "name": "burnForDistribution",
          "type": "bool"
        }
      ],
      "stateMutability": "view",
      "type": "function"
    },
    {
      "inputs": [],
      "name": "iterateSeason",
      "outputs": [],
      "stateMutability": "nonpayable",
      "type": "function"
    },
    {
      "inputs": [
        {
          "internalType": "address",
          "name": "",
          "type": "address"
        },
        {
          "internalType": "address",
          "name": "",
          "type": "address"
        },
        {
          "internalType": "uint256",
          "name": "",
          "type": "uint256"
        },
        {
          "internalType": "bytes",
          "name": "",
          "type": "bytes"
        }
      ],
      "name": "onERC721Received",
      "outputs": [
        {
          "internalType": "bytes4",
          "name": "",
          "type": "bytes4"
        }
      ],
      "stateMutability": "nonpayable",
      "type": "function"
    },
    {
      "inputs": [],
      "name": "owner",
      "outputs": [
        {
          "internalType": "address",
          "name": "",
          "type": "address"
        }
      ],
      "stateMutability": "view",
      "type": "function"
    },
    {
      "inputs": [],
      "name": "platinumToken",
      "outputs": [
        {
          "internalType": "contract PlatinumToken",
          "name": "",
          "type": "address"
        }
      ],
      "stateMutability": "view",
      "type": "function"
    },
    {
      "inputs": [],
      "name": "renounceOwnership",
      "outputs": [],
      "stateMutability": "nonpayable",
      "type": "function"
    },
    {
      "inputs": [],
      "name": "season",
      "outputs": [
        {
          "internalType": "uint256",
          "name": "",
          "type": "uint256"
        }
      ],
      "stateMutability": "view",
      "type": "function"
    },
    {
      "inputs": [
        {
          "internalType": "address",
          "name": "newOwner",
          "type": "address"
        }
      ],
      "name": "transferOwnership",
      "outputs": [],
      "stateMutability": "nonpayable",
      "type": "function"
    }
  ],
  "bytecode": "0x608060405260006003553480156200001657600080fd5b50604051620024613803806200246183398181016040528101906200003c91906200018e565b6200005c62000050620000ab60201b60201c565b620000b360201b60201c565b6001808190555080600460006101000a81548173ffffffffffffffffffffffffffffffffffffffff021916908373ffffffffffffffffffffffffffffffffffffffff160217905550506200021c565b600033905090565b60008060009054906101000a900473ffffffffffffffffffffffffffffffffffffffff169050816000806101000a81548173ffffffffffffffffffffffffffffffffffffffff021916908373ffffffffffffffffffffffffffffffffffffffff1602179055508173ffffffffffffffffffffffffffffffffffffffff168173ffffffffffffffffffffffffffffffffffffffff167f8be0079c531659141344cd1fd0a4f28419497f9722a3daafe3b4186f6b6457e060405160405180910390a35050565b600081519050620001888162000202565b92915050565b600060208284031215620001a157600080fd5b6000620001b18482850162000177565b91505092915050565b6000620001c782620001e2565b9050919050565b6000620001db82620001ba565b9050919050565b600073ffffffffffffffffffffffffffffffffffffffff82169050919050565b6200020d81620001ce565b81146200021957600080fd5b50565b612235806200022c6000396000f3fe608060405234801561001057600080fd5b50600436106101005760003560e01c8063798bbd0411610097578063d0e350bf11610066578063d0e350bf1461028a578063d4fea53e146102ba578063e5d69a33146102ea578063f2fde38b1461031a57610100565b8063798bbd04146102025780638da5cb5b14610232578063baf6521d14610250578063c50b0fb01461026c57610100565b8063493fee2d116100d3578063493fee2d1461018e5780634e19f1c0146101be57806364cdc88c146101da578063715018a6146101f857610100565b8063150b7a02146101055780632d0aa6201461013557806334c819ed146101515780633b47f34c1461015b575b600080fd5b61011f600480360381019061011a919061179a565b610336565b60405161012c9190611ba2565b60405180910390f35b61014f600480360381019061014a9190611815565b61034a565b005b6101596107fb565b005b61017560048036038101906101709190611748565b610893565b6040516101859493929190611cee565b60405180910390f35b6101a860048036038101906101a3919061196e565b6108d0565b6040516101b59190611b87565b60405180910390f35b6101d860048036038101906101d391906118a5565b61090c565b005b6101e2610afe565b6040516101ef9190611bbd565b60405180910390f35b610200610b24565b005b61021c60048036038101906102179190611748565b610bac565b6040516102299190611cd3565b60405180910390f35b61023a610c7c565b6040516102479190611b0c565b60405180910390f35b61026a60048036038101906102659190611869565b610ca5565b005b610274610ff6565b6040516102819190611cd3565b60405180910390f35b6102a4600480360381019061029f9190611748565b610ffc565b6040516102b19190611cd3565b60405180910390f35b6102d460048036038101906102cf9190611748565b6110cc565b6040516102e19190611cd3565b60405180910390f35b61030460048036038101906102ff9190611748565b61119c565b6040516103119190611b87565b60405180910390f35b610334600480360381019061032f9190611748565b611279565b005b600063150b7a0260e01b9050949350505050565b6000600260008473ffffffffffffffffffffffffffffffffffffffff1673ffffffffffffffffffffffffffffffffffffffff168152602001908152602001600020905060008160020154116103d4576040517f08c379a00000000000000000000000000000000000000000000000000000000081526004016103cb90611c33565b60405180910390fd5b60008160010154905060008260010154141561046b578373ffffffffffffffffffffffffffffffffffffffff166318160ddd6040518163ffffffff1660e01b815260040160206040518083038186803b15801561043057600080fd5b505afa158015610444573d6000803e3d6000fd5b505050506040513d601f19601f820116820180604052508101906104689190611945565b90505b60005b83518110156107f45760056000600354815260200190815260200160002060008673ffffffffffffffffffffffffffffffffffffffff1673ffffffffffffffffffffffffffffffffffffffff1681526020019081526020016000206000858381518110610504577f4e487b7100000000000000000000000000000000000000000000000000000000600052603260045260246000fd5b6020026020010151815260200190815260200160002060009054906101000a900460ff1615610568576040517f08c379a000000000000000000000000000000000000000000000000000000000815260040161055f90611c53565b60405180910390fd5b8381815181106105a1577f4e487b7100000000000000000000000000000000000000000000000000000000600052603260045260246000fd5b60200260200101518360000154111580156105fc57508381815181106105f0577f4e487b7100000000000000000000000000000000000000000000000000000000600052603260045260246000fd5b60200260200101518210155b61063b576040517f08c379a000000000000000000000000000000000000000000000000000000000815260040161063290611c93565b60405180910390fd5b8473ffffffffffffffffffffffffffffffffffffffff16636352211e858381518110610690577f4e487b7100000000000000000000000000000000000000000000000000000000600052603260045260246000fd5b60200260200101516040518263ffffffff1660e01b81526004016106b49190611cd3565b60206040518083038186803b1580156106cc57600080fd5b505afa1580156106e0573d6000803e3d6000fd5b505050506040513d601f19601f820116820180604052508101906107049190611771565b73ffffffffffffffffffffffffffffffffffffffff16610722611371565b73ffffffffffffffffffffffffffffffffffffffff1614610778576040517f08c379a000000000000000000000000000000000000000000000000000000000815260040161076f90611bf3565b60405180910390fd5b6107e1858583815181106107b5577f4e487b7100000000000000000000000000000000000000000000000000000000600052603260045260246000fd5b60200260200101516107c5611371565b86600201548760030160009054906101000a900460ff16611379565b80806107ec90611f18565b91505061046e565b5050505050565b610803611371565b73ffffffffffffffffffffffffffffffffffffffff16610821610c7c565b73ffffffffffffffffffffffffffffffffffffffff1614610877576040517f08c379a000000000000000000000000000000000000000000000000000000000815260040161086e90611c73565b60405180910390fd5b60016003600082825461088a9190611dc6565b92505081905550565b60026020528060005260406000206000915090508060000154908060010154908060020154908060030160009054906101000a900460ff16905084565b6005602052826000526040600020602052816000526040600020602052806000526040600020600092509250509054906101000a900460ff1681565b610914611371565b73ffffffffffffffffffffffffffffffffffffffff16610932610c7c565b73ffffffffffffffffffffffffffffffffffffffff1614610988576040517f08c379a000000000000000000000000000000000000000000000000000000000815260040161097f90611c73565b60405180910390fd5b8473ffffffffffffffffffffffffffffffffffffffff166301ffc9a76380ac58cd6040518263ffffffff1660e01b81526004016109c59190611bd8565b60206040518083038186803b1580156109dd57600080fd5b505afa1580156109f1573d6000803e3d6000fd5b505050506040513d601f19601f82011682018060405250810190610a15919061191c565b610a54576040517f08c379a0000000000000000000000000000000000000000000000000000000008152600401610a4b90611cb3565b60405180910390fd5b6040518060800160405280858152602001848152602001838152602001821515815250600260008773ffffffffffffffffffffffffffffffffffffffff1673ffffffffffffffffffffffffffffffffffffffff16815260200190815260200160002060008201518160000155602082015181600101556040820151816002015560608201518160030160006101000a81548160ff0219169083151502179055509050505050505050565b600460009054906101000a900473ffffffffffffffffffffffffffffffffffffffff1681565b610b2c611371565b73ffffffffffffffffffffffffffffffffffffffff16610b4a610c7c565b73ffffffffffffffffffffffffffffffffffffffff1614610ba0576040517f08c379a0000000000000000000000000000000000000000000000000000000008152600401610b9790611c73565b60405180910390fd5b610baa6000611508565b565b600080600260008473ffffffffffffffffffffffffffffffffffffffff1673ffffffffffffffffffffffffffffffffffffffff1681526020019081526020016000206002015411610c32576040517f08c379a0000000000000000000000000000000000000000000000000000000008152600401610c2990611c33565b60405180910390fd5b600260008373ffffffffffffffffffffffffffffffffffffffff1673ffffffffffffffffffffffffffffffffffffffff168152602001908152602001600020600201549050919050565b60008060009054906101000a900473ffffffffffffffffffffffffffffffffffffffff16905090565b6000600260008473ffffffffffffffffffffffffffffffffffffffff1673ffffffffffffffffffffffffffffffffffffffff168152602001908152602001600020905060056000600354815260200190815260200160002060008473ffffffffffffffffffffffffffffffffffffffff1673ffffffffffffffffffffffffffffffffffffffff168152602001908152602001600020600083815260200190815260200160002060009054906101000a900460ff1615610d99576040517f08c379a0000000000000000000000000000000000000000000000000000000008152600401610d9090611c53565b60405180910390fd5b6000816002015411610de0576040517f08c379a0000000000000000000000000000000000000000000000000000000008152600401610dd790611c33565b60405180910390fd5b600081600101549050600082600101541415610e77578373ffffffffffffffffffffffffffffffffffffffff166318160ddd6040518163ffffffff1660e01b815260040160206040518083038186803b158015610e3c57600080fd5b505afa158015610e50573d6000803e3d6000fd5b505050506040513d601f19601f82011682018060405250810190610e749190611945565b90505b82826000015411158015610e8b5750828110155b610eca576040517f08c379a0000000000000000000000000000000000000000000000000000000008152600401610ec190611c93565b60405180910390fd5b8373ffffffffffffffffffffffffffffffffffffffff16636352211e846040518263ffffffff1660e01b8152600401610f039190611cd3565b60206040518083038186803b158015610f1b57600080fd5b505afa158015610f2f573d6000803e3d6000fd5b505050506040513d601f19601f82011682018060405250810190610f539190611771565b73ffffffffffffffffffffffffffffffffffffffff16610f71611371565b73ffffffffffffffffffffffffffffffffffffffff1614610fc7576040517f08c379a0000000000000000000000000000000000000000000000000000000008152600401610fbe90611bf3565b60405180910390fd5b610ff08484610fd4611371565b85600201548660030160009054906101000a900460ff16611379565b50505050565b60035481565b600080600260008473ffffffffffffffffffffffffffffffffffffffff1673ffffffffffffffffffffffffffffffffffffffff1681526020019081526020016000206002015411611082576040517f08c379a000000000000000000000000000000000000000000000000000000000815260040161107990611c33565b60405180910390fd5b600260008373ffffffffffffffffffffffffffffffffffffffff1673ffffffffffffffffffffffffffffffffffffffff168152602001908152602001600020600001549050919050565b600080600260008473ffffffffffffffffffffffffffffffffffffffff1673ffffffffffffffffffffffffffffffffffffffff1681526020019081526020016000206002015411611152576040517f08c379a000000000000000000000000000000000000000000000000000000000815260040161114990611c33565b60405180910390fd5b600260008373ffffffffffffffffffffffffffffffffffffffff1673ffffffffffffffffffffffffffffffffffffffff168152602001908152602001600020600101549050919050565b600080600260008473ffffffffffffffffffffffffffffffffffffffff1673ffffffffffffffffffffffffffffffffffffffff1681526020019081526020016000206002015411611222576040517f08c379a000000000000000000000000000000000000000000000000000000000815260040161121990611c33565b60405180910390fd5b600260008373ffffffffffffffffffffffffffffffffffffffff1673ffffffffffffffffffffffffffffffffffffffff16815260200190815260200160002060030160009054906101000a900460ff169050919050565b611281611371565b73ffffffffffffffffffffffffffffffffffffffff1661129f610c7c565b73ffffffffffffffffffffffffffffffffffffffff16146112f5576040517f08c379a00000000000000000000000000000000000000000000000000000000081526004016112ec90611c73565b60405180910390fd5b600073ffffffffffffffffffffffffffffffffffffffff168173ffffffffffffffffffffffffffffffffffffffff161415611365576040517f08c379a000000000000000000000000000000000000000000000000000000000815260040161135c90611c13565b60405180910390fd5b61136e81611508565b50565b600033905090565b80156113f6578473ffffffffffffffffffffffffffffffffffffffff166342842e0e6113a3611371565b30876040518463ffffffff1660e01b81526004016113c393929190611b27565b600060405180830381600087803b1580156113dd57600080fd5b505af11580156113f1573d6000803e3d6000fd5b505050505b600160056000600354815260200190815260200160002060008773ffffffffffffffffffffffffffffffffffffffff1673ffffffffffffffffffffffffffffffffffffffff168152602001908152602001600020600086815260200190815260200160002060006101000a81548160ff021916908315150217905550600460009054906101000a900473ffffffffffffffffffffffffffffffffffffffff1673ffffffffffffffffffffffffffffffffffffffff166340c10f1984846040518363ffffffff1660e01b81526004016114cf929190611b5e565b600060405180830381600087803b1580156114e957600080fd5b505af11580156114fd573d6000803e3d6000fd5b505050505050505050565b60008060009054906101000a900473ffffffffffffffffffffffffffffffffffffffff169050816000806101000a81548173ffffffffffffffffffffffffffffffffffffffff021916908373ffffffffffffffffffffffffffffffffffffffff1602179055508173ffffffffffffffffffffffffffffffffffffffff168173ffffffffffffffffffffffffffffffffffffffff167f8be0079c531659141344cd1fd0a4f28419497f9722a3daafe3b4186f6b6457e060405160405180910390a35050565b60006115df6115da84611d58565b611d33565b905080838252602082019050828560208602820111156115fe57600080fd5b60005b8581101561162e5781611614888261171e565b845260208401935060208301925050600181019050611601565b5050509392505050565b600061164b61164684611d84565b611d33565b90508281526020810184848401111561166357600080fd5b61166e848285611ed8565b509392505050565b600081359050611685816121ba565b92915050565b60008151905061169a816121ba565b92915050565b600082601f8301126116b157600080fd5b81356116c18482602086016115cc565b91505092915050565b6000813590506116d9816121d1565b92915050565b6000815190506116ee816121d1565b92915050565b600082601f83011261170557600080fd5b8135611715848260208601611638565b91505092915050565b60008135905061172d816121e8565b92915050565b600081519050611742816121e8565b92915050565b60006020828403121561175a57600080fd5b600061176884828501611676565b91505092915050565b60006020828403121561178357600080fd5b60006117918482850161168b565b91505092915050565b600080600080608085870312156117b057600080fd5b60006117be87828801611676565b94505060206117cf87828801611676565b93505060406117e08782880161171e565b925050606085013567ffffffffffffffff8111156117fd57600080fd5b611809878288016116f4565b91505092959194509250565b6000806040838503121561182857600080fd5b600061183685828601611676565b925050602083013567ffffffffffffffff81111561185357600080fd5b61185f858286016116a0565b9150509250929050565b6000806040838503121561187c57600080fd5b600061188a85828601611676565b925050602061189b8582860161171e565b9150509250929050565b600080600080600060a086880312156118bd57600080fd5b60006118cb88828901611676565b95505060206118dc8882890161171e565b94505060406118ed8882890161171e565b93505060606118fe8882890161171e565b925050608061190f888289016116ca565b9150509295509295909350565b60006020828403121561192e57600080fd5b600061193c848285016116df565b91505092915050565b60006020828403121561195757600080fd5b600061196584828501611733565b91505092915050565b60008060006060848603121561198357600080fd5b60006119918682870161171e565b93505060206119a286828701611676565b92505060406119b38682870161171e565b9150509250925092565b6119c681611e1c565b82525050565b6119d581611e2e565b82525050565b6119e481611e3a565b82525050565b6119f381611e9a565b82525050565b611a0281611ebe565b82525050565b6000611a15602983611db5565b9150611a2082611fdd565b604082019050919050565b6000611a38602683611db5565b9150611a438261202c565b604082019050919050565b6000611a5b602983611db5565b9150611a668261207b565b604082019050919050565b6000611a7e602d83611db5565b9150611a89826120ca565b604082019050919050565b6000611aa1602083611db5565b9150611aac82612119565b602082019050919050565b6000611ac4601883611db5565b9150611acf82612142565b602082019050919050565b6000611ae7603283611db5565b9150611af28261216b565b604082019050919050565b611b0681611e90565b82525050565b6000602082019050611b2160008301846119bd565b92915050565b6000606082019050611b3c60008301866119bd565b611b4960208301856119bd565b611b566040830184611afd565b949350505050565b6000604082019050611b7360008301856119bd565b611b806020830184611afd565b9392505050565b6000602082019050611b9c60008301846119cc565b92915050565b6000602082019050611bb760008301846119db565b92915050565b6000602082019050611bd260008301846119ea565b92915050565b6000602082019050611bed60008301846119f9565b92915050565b60006020820190508181036000830152611c0c81611a08565b9050919050565b60006020820190508181036000830152611c2c81611a2b565b9050919050565b60006020820190508181036000830152611c4c81611a4e565b9050919050565b60006020820190508181036000830152611c6c81611a71565b9050919050565b60006020820190508181036000830152611c8c81611a94565b9050919050565b60006020820190508181036000830152611cac81611ab7565b9050919050565b60006020820190508181036000830152611ccc81611ada565b9050919050565b6000602082019050611ce86000830184611afd565b92915050565b6000608082019050611d036000830187611afd565b611d106020830186611afd565b611d1d6040830185611afd565b611d2a60608301846119cc565b95945050505050565b6000611d3d611d4e565b9050611d498282611ee7565b919050565b6000604051905090565b600067ffffffffffffffff821115611d7357611d72611f90565b5b602082029050602081019050919050565b600067ffffffffffffffff821115611d9f57611d9e611f90565b5b611da882611fbf565b9050602081019050919050565b600082825260208201905092915050565b6000611dd182611e90565b9150611ddc83611e90565b9250827fffffffffffffffffffffffffffffffffffffffffffffffffffffffffffffffff03821115611e1157611e10611f61565b5b828201905092915050565b6000611e2782611e70565b9050919050565b60008115159050919050565b60007fffffffff0000000000000000000000000000000000000000000000000000000082169050919050565b6000819050919050565b600073ffffffffffffffffffffffffffffffffffffffff82169050919050565b6000819050919050565b6000611ea582611eac565b9050919050565b6000611eb782611e70565b9050919050565b6000611ed1611ecc83611e66565b611fd0565b9050919050565b82818337600083830152505050565b611ef082611fbf565b810181811067ffffffffffffffff82111715611f0f57611f0e611f90565b5b80604052505050565b6000611f2382611e90565b91507fffffffffffffffffffffffffffffffffffffffffffffffffffffffffffffffff821415611f5657611f55611f61565b5b600182019050919050565b7f4e487b7100000000000000000000000000000000000000000000000000000000600052601160045260246000fd5b7f4e487b7100000000000000000000000000000000000000000000000000000000600052604160045260246000fd5b6000601f19601f8301169050919050565b60008160e01b9050919050565b7f5468652063616c6c6572206973206e6f7420746865206f776e6572206f66207460008201527f68697320746f6b656e0000000000000000000000000000000000000000000000602082015250565b7f4f776e61626c653a206e6577206f776e657220697320746865207a65726f206160008201527f6464726573730000000000000000000000000000000000000000000000000000602082015250565b7f54686973204e4654206973206e6f7420656c696769626c6520666f722064697360008201527f747269627574696f6e0000000000000000000000000000000000000000000000602082015250565b7f54686973204e46542068617320616c726561647920636c61696d65642069747360008201527f20646973747269627574696f6e00000000000000000000000000000000000000602082015250565b7f4f776e61626c653a2063616c6c6572206973206e6f7420746865206f776e6572600082015250565b7f54686973204e4654206973206e6f7420696e2072616e67650000000000000000600082015250565b7f5468697320646f6573206e6f742061707065617220746f20626520612076616c60008201527f69642045524337323120636f6e74726163740000000000000000000000000000602082015250565b6121c381611e1c565b81146121ce57600080fd5b50565b6121da81611e2e565b81146121e557600080fd5b50565b6121f181611e90565b81146121fc57600080fd5b5056fea26469706673582212201806d7cab4c35eac22c36071c6c117c2d10923996bf73fe7434faf884529790764736f6c63430008040033",
  "linkReferences": {},
  "deployedLinkReferences": {}
}