{
  "_format": "hh-sol-artifact-1",
  "contractName": "PlatinumDistributor",
  "sourceName": "contracts/platDistributor.sol",
  "abi": [
    {
      "inputs": [
        {
          "internalType": "contract PlatinumToken",
          "name": "_platinumToken",
          "type": "address"
        }
      ],
      "stateMutability": "nonpayable",
      "type": "constructor"
    },
    {
      "anonymous": false,
      "inputs": [
        {
          "indexed": true,
          "internalType": "address",
          "name": "previousOwner",
          "type": "address"
        },
        {
          "indexed": true,
          "internalType": "address",
          "name": "newOwner",
          "type": "address"
        }
      ],
      "name": "OwnershipTransferred",
      "type": "event"
    },
    {
      "inputs": [
        {
          "internalType": "address",
          "name": "contractERC721",
          "type": "address"
        }
      ],
      "name": "_getDistributableBurnForDistribution",
      "outputs": [
        {
          "internalType": "bool",
          "name": "",
          "type": "bool"
        }
      ],
      "stateMutability": "view",
      "type": "function"
    },
    {
      "inputs": [
        {
          "internalType": "address",
          "name": "contractERC721",
          "type": "address"
        }
      ],
      "name": "_getDistributableIdLBound",
      "outputs": [
        {
          "internalType": "uint256",
          "name": "",
          "type": "uint256"
        }
      ],
      "stateMutability": "view",
      "type": "function"
    },
    {
      "inputs": [
        {
          "internalType": "address",
          "name": "contractERC721",
          "type": "address"
        }
      ],
      "name": "_getDistributableIdUBound",
      "outputs": [
        {
          "internalType": "uint256",
          "name": "",
          "type": "uint256"
        }
      ],
      "stateMutability": "view",
      "type": "function"
    },
    {
      "inputs": [
        {
          "internalType": "address",
          "name": "contractERC721",
          "type": "address"
        }
      ],
      "name": "_getDistributableTokenPerNFT",
      "outputs": [
        {
          "internalType": "uint256",
          "name": "",
          "type": "uint256"
        }
      ],
      "stateMutability": "view",
      "type": "function"
    },
    {
      "inputs": [
        {
          "internalType": "address",
          "name": "_eligibleERC721",
          "type": "address"
        },
        {
          "internalType": "uint256",
          "name": "_lBoundId",
          "type": "uint256"
        },
        {
          "internalType": "uint256",
          "name": "_uBoundId",
          "type": "uint256"
        },
        {
          "internalType": "uint256",
          "name": "_tokenPerNFT",
          "type": "uint256"
        },
        {
          "internalType": "bool",
          "name": "_burnForDistribution",
          "type": "bool"
        }
      ],
      "name": "addDistributableContract",
      "outputs": [],
      "stateMutability": "nonpayable",
      "type": "function"
    },
    {
      "inputs": [
        {
          "internalType": "address",
          "name": "contractERC721",
          "type": "address"
        },
        {
          "internalType": "uint256[]",
          "name": "tokenId",
          "type": "uint256[]"
        }
      ],
      "name": "claimMulti",
      "outputs": [],
      "stateMutability": "nonpayable",
      "type": "function"
    },
    {
      "inputs": [
        {
          "internalType": "address",
          "name": "contractERC721",
          "type": "address"
        },
        {
          "internalType": "uint256",
          "name": "tokenId",
          "type": "uint256"
        }
      ],
      "name": "claimSingle",
      "outputs": [],
      "stateMutability": "nonpayable",
      "type": "function"
    },
    {
      "inputs": [
        {
          "internalType": "uint256",
          "name": "",
          "type": "uint256"
        },
        {
          "internalType": "address",
          "name": "",
          "type": "address"
        },
        {
          "internalType": "uint256",
          "name": "",
          "type": "uint256"
        }
      ],
      "name": "claimedByTokenId",
      "outputs": [
        {
          "internalType": "bool",
          "name": "",
          "type": "bool"
        }
      ],
      "stateMutability": "view",
      "type": "function"
    },
    {
      "inputs": [
        {
          "internalType": "address",
          "name": "",
          "type": "address"
        }
      ],
      "name": "distributablePools",
      "outputs": [
        {
          "internalType": "uint256",
          "name": "lBoundId",
          "type": "uint256"
        },
        {
          "internalType": "uint256",
          "name": "uBoundId",
          "type": "uint256"
        },
        {
          "internalType": "uint256",
          "name": "tokenPerNFT",
          "type": "uint256"
        },
        {
          "internalType": "bool",
          "name": "burnForDistribution",
          "type": "bool"
        }
      ],
      "stateMutability": "view",
      "type": "function"
    },
    {
      "inputs": [],
      "name": "iterateSeason",
      "outputs": [],
      "stateMutability": "nonpayable",
      "type": "function"
    },
    {
      "inputs": [
        {
          "internalType": "address",
          "name": "",
          "type": "address"
        },
        {
          "internalType": "address",
          "name": "",
          "type": "address"
        },
        {
          "internalType": "uint256",
          "name": "",
          "type": "uint256"
        },
        {
          "internalType": "bytes",
          "name": "",
          "type": "bytes"
        }
      ],
      "name": "onERC721Received",
      "outputs": [
        {
          "internalType": "bytes4",
          "name": "",
          "type": "bytes4"
        }
      ],
      "stateMutability": "nonpayable",
      "type": "function"
    },
    {
      "inputs": [],
      "name": "owner",
      "outputs": [
        {
          "internalType": "address",
          "name": "",
          "type": "address"
        }
      ],
      "stateMutability": "view",
      "type": "function"
    },
    {
      "inputs": [],
      "name": "platinumToken",
      "outputs": [
        {
          "internalType": "contract PlatinumToken",
          "name": "",
          "type": "address"
        }
      ],
      "stateMutability": "view",
      "type": "function"
    },
    {
      "inputs": [],
      "name": "renounceOwnership",
      "outputs": [],
      "stateMutability": "nonpayable",
      "type": "function"
    },
    {
      "inputs": [],
      "name": "season",
      "outputs": [
        {
          "internalType": "uint256",
          "name": "",
          "type": "uint256"
        }
      ],
      "stateMutability": "view",
      "type": "function"
    },
    {
      "inputs": [
        {
          "internalType": "address",
          "name": "newOwner",
          "type": "address"
        }
      ],
      "name": "transferOwnership",
      "outputs": [],
      "stateMutability": "nonpayable",
      "type": "function"
    }
  ],
  "bytecode": "0x608060405260006003553480156200001657600080fd5b50604051620025773803806200257783398181016040528101906200003c91906200018e565b6200005c62000050620000ab60201b60201c565b620000b360201b60201c565b6001808190555080600460006101000a81548173ffffffffffffffffffffffffffffffffffffffff021916908373ffffffffffffffffffffffffffffffffffffffff160217905550506200021c565b600033905090565b60008060009054906101000a900473ffffffffffffffffffffffffffffffffffffffff169050816000806101000a81548173ffffffffffffffffffffffffffffffffffffffff021916908373ffffffffffffffffffffffffffffffffffffffff1602179055508173ffffffffffffffffffffffffffffffffffffffff168173ffffffffffffffffffffffffffffffffffffffff167f8be0079c531659141344cd1fd0a4f28419497f9722a3daafe3b4186f6b6457e060405160405180910390a35050565b600081519050620001888162000202565b92915050565b600060208284031215620001a157600080fd5b6000620001b18482850162000177565b91505092915050565b6000620001c782620001e2565b9050919050565b6000620001db82620001ba565b9050919050565b600073ffffffffffffffffffffffffffffffffffffffff82169050919050565b6200020d81620001ce565b81146200021957600080fd5b50565b61234b806200022c6000396000f3fe608060405234801561001057600080fd5b50600436106101005760003560e01c8063798bbd0411610097578063d0e350bf11610066578063d0e350bf1461028a578063d4fea53e146102ba578063e5d69a33146102ea578063f2fde38b1461031a57610100565b8063798bbd04146102025780638da5cb5b14610232578063baf6521d14610250578063c50b0fb01461026c57610100565b8063493fee2d116100d3578063493fee2d1461018e5780634e19f1c0146101be57806364cdc88c146101da578063715018a6146101f857610100565b8063150b7a02146101055780632d0aa6201461013557806334c819ed146101515780633b47f34c1461015b575b600080fd5b61011f600480360381019061011a9190611844565b610336565b60405161012c9190611c6f565b60405180910390f35b61014f600480360381019061014a91906118bf565b61034a565b005b610159610850565b005b610175600480360381019061017091906117f2565b6108e8565b6040516101859493929190611ddb565b60405180910390f35b6101a860048036038101906101a39190611a18565b610925565b6040516101b59190611c54565b60405180910390f35b6101d860048036038101906101d3919061194f565b610961565b005b6101e2610b53565b6040516101ef9190611c8a565b60405180910390f35b610200610b79565b005b61021c600480360381019061021791906117f2565b610c01565b6040516102299190611dc0565b60405180910390f35b61023a610cd1565b6040516102479190611bd9565b60405180910390f35b61026a60048036038101906102659190611913565b610cfa565b005b6102746110a0565b6040516102819190611dc0565b60405180910390f35b6102a4600480360381019061029f91906117f2565b6110a6565b6040516102b19190611dc0565b60405180910390f35b6102d460048036038101906102cf91906117f2565b611176565b6040516102e19190611dc0565b60405180910390f35b61030460048036038101906102ff91906117f2565b611246565b6040516103119190611c54565b60405180910390f35b610334600480360381019061032f91906117f2565b611323565b005b600063150b7a0260e01b9050949350505050565b60026001541415610390576040517f08c379a000000000000000000000000000000000000000000000000000000000815260040161038790611da0565b60405180910390fd5b60026001819055506000600260008473ffffffffffffffffffffffffffffffffffffffff1673ffffffffffffffffffffffffffffffffffffffff16815260200190815260200160002090506000816002015411610422576040517f08c379a000000000000000000000000000000000000000000000000000000000815260040161041990611d00565b60405180910390fd5b6000816001015490506000826001015414156104b9578373ffffffffffffffffffffffffffffffffffffffff166318160ddd6040518163ffffffff1660e01b815260040160206040518083038186803b15801561047e57600080fd5b505afa158015610492573d6000803e3d6000fd5b505050506040513d601f19601f820116820180604052508101906104b691906119ef565b90505b60005b83518110156108425760056000600354815260200190815260200160002060008673ffffffffffffffffffffffffffffffffffffffff1673ffffffffffffffffffffffffffffffffffffffff1681526020019081526020016000206000858381518110610552577f4e487b7100000000000000000000000000000000000000000000000000000000600052603260045260246000fd5b6020026020010151815260200190815260200160002060009054906101000a900460ff16156105b6576040517f08c379a00000000000000000000000000000000000000000000000000000000081526004016105ad90611d20565b60405180910390fd5b8381815181106105ef577f4e487b7100000000000000000000000000000000000000000000000000000000600052603260045260246000fd5b602002602001015183600001541115801561064a575083818151811061063e577f4e487b7100000000000000000000000000000000000000000000000000000000600052603260045260246000fd5b60200260200101518210155b610689576040517f08c379a000000000000000000000000000000000000000000000000000000000815260040161068090611d60565b60405180910390fd5b8473ffffffffffffffffffffffffffffffffffffffff16636352211e8583815181106106de577f4e487b7100000000000000000000000000000000000000000000000000000000600052603260045260246000fd5b60200260200101516040518263ffffffff1660e01b81526004016107029190611dc0565b60206040518083038186803b15801561071a57600080fd5b505afa15801561072e573d6000803e3d6000fd5b505050506040513d601f19601f82011682018060405250810190610752919061181b565b73ffffffffffffffffffffffffffffffffffffffff1661077061141b565b73ffffffffffffffffffffffffffffffffffffffff16146107c6576040517f08c379a00000000000000000000000000000000000000000000000000000000081526004016107bd90611cc0565b60405180910390fd5b61082f85858381518110610803577f4e487b7100000000000000000000000000000000000000000000000000000000600052603260045260246000fd5b602002602001015161081361141b565b86600201548760030160009054906101000a900460ff16611423565b808061083a90612005565b9150506104bc565b505050600180819055505050565b61085861141b565b73ffffffffffffffffffffffffffffffffffffffff16610876610cd1565b73ffffffffffffffffffffffffffffffffffffffff16146108cc576040517f08c379a00000000000000000000000000000000000000000000000000000000081526004016108c390611d40565b60405180910390fd5b6001600360008282546108df9190611eb3565b92505081905550565b60026020528060005260406000206000915090508060000154908060010154908060020154908060030160009054906101000a900460ff16905084565b6005602052826000526040600020602052816000526040600020602052806000526040600020600092509250509054906101000a900460ff1681565b61096961141b565b73ffffffffffffffffffffffffffffffffffffffff16610987610cd1565b73ffffffffffffffffffffffffffffffffffffffff16146109dd576040517f08c379a00000000000000000000000000000000000000000000000000000000081526004016109d490611d40565b60405180910390fd5b8473ffffffffffffffffffffffffffffffffffffffff166301ffc9a76380ac58cd6040518263ffffffff1660e01b8152600401610a1a9190611ca5565b60206040518083038186803b158015610a3257600080fd5b505afa158015610a46573d6000803e3d6000fd5b505050506040513d601f19601f82011682018060405250810190610a6a91906119c6565b610aa9576040517f08c379a0000000000000000000000000000000000000000000000000000000008152600401610aa090611d80565b60405180910390fd5b6040518060800160405280858152602001848152602001838152602001821515815250600260008773ffffffffffffffffffffffffffffffffffffffff1673ffffffffffffffffffffffffffffffffffffffff16815260200190815260200160002060008201518160000155602082015181600101556040820151816002015560608201518160030160006101000a81548160ff0219169083151502179055509050505050505050565b600460009054906101000a900473ffffffffffffffffffffffffffffffffffffffff1681565b610b8161141b565b73ffffffffffffffffffffffffffffffffffffffff16610b9f610cd1565b73ffffffffffffffffffffffffffffffffffffffff1614610bf5576040517f08c379a0000000000000000000000000000000000000000000000000000000008152600401610bec90611d40565b60405180910390fd5b610bff60006115b2565b565b600080600260008473ffffffffffffffffffffffffffffffffffffffff1673ffffffffffffffffffffffffffffffffffffffff1681526020019081526020016000206002015411610c87576040517f08c379a0000000000000000000000000000000000000000000000000000000008152600401610c7e90611d00565b60405180910390fd5b600260008373ffffffffffffffffffffffffffffffffffffffff1673ffffffffffffffffffffffffffffffffffffffff168152602001908152602001600020600201549050919050565b60008060009054906101000a900473ffffffffffffffffffffffffffffffffffffffff16905090565b60026001541415610d40576040517f08c379a0000000000000000000000000000000000000000000000000000000008152600401610d3790611da0565b60405180910390fd5b60026001819055506000600260008473ffffffffffffffffffffffffffffffffffffffff1673ffffffffffffffffffffffffffffffffffffffff168152602001908152602001600020905060056000600354815260200190815260200160002060008473ffffffffffffffffffffffffffffffffffffffff1673ffffffffffffffffffffffffffffffffffffffff168152602001908152602001600020600083815260200190815260200160002060009054906101000a900460ff1615610e3c576040517f08c379a0000000000000000000000000000000000000000000000000000000008152600401610e3390611d20565b60405180910390fd5b6000816002015411610e83576040517f08c379a0000000000000000000000000000000000000000000000000000000008152600401610e7a90611d00565b60405180910390fd5b600081600101549050600082600101541415610f1a578373ffffffffffffffffffffffffffffffffffffffff166318160ddd6040518163ffffffff1660e01b815260040160206040518083038186803b158015610edf57600080fd5b505afa158015610ef3573d6000803e3d6000fd5b505050506040513d601f19601f82011682018060405250810190610f1791906119ef565b90505b82826000015411158015610f2e5750828110155b610f6d576040517f08c379a0000000000000000000000000000000000000000000000000000000008152600401610f6490611d60565b60405180910390fd5b8373ffffffffffffffffffffffffffffffffffffffff16636352211e846040518263ffffffff1660e01b8152600401610fa69190611dc0565b60206040518083038186803b158015610fbe57600080fd5b505afa158015610fd2573d6000803e3d6000fd5b505050506040513d601f19601f82011682018060405250810190610ff6919061181b565b73ffffffffffffffffffffffffffffffffffffffff1661101461141b565b73ffffffffffffffffffffffffffffffffffffffff161461106a576040517f08c379a000000000000000000000000000000000000000000000000000000000815260040161106190611cc0565b60405180910390fd5b611093848461107761141b565b85600201548660030160009054906101000a900460ff16611423565b5050600180819055505050565b60035481565b600080600260008473ffffffffffffffffffffffffffffffffffffffff1673ffffffffffffffffffffffffffffffffffffffff168152602001908152602001600020600201541161112c576040517f08c379a000000000000000000000000000000000000000000000000000000000815260040161112390611d00565b60405180910390fd5b600260008373ffffffffffffffffffffffffffffffffffffffff1673ffffffffffffffffffffffffffffffffffffffff168152602001908152602001600020600001549050919050565b600080600260008473ffffffffffffffffffffffffffffffffffffffff1673ffffffffffffffffffffffffffffffffffffffff16815260200190815260200160002060020154116111fc576040517f08c379a00000000000000000000000000000000000000000000000000000000081526004016111f390611d00565b60405180910390fd5b600260008373ffffffffffffffffffffffffffffffffffffffff1673ffffffffffffffffffffffffffffffffffffffff168152602001908152602001600020600101549050919050565b600080600260008473ffffffffffffffffffffffffffffffffffffffff1673ffffffffffffffffffffffffffffffffffffffff16815260200190815260200160002060020154116112cc576040517f08c379a00000000000000000000000000000000000000000000000000000000081526004016112c390611d00565b60405180910390fd5b600260008373ffffffffffffffffffffffffffffffffffffffff1673ffffffffffffffffffffffffffffffffffffffff16815260200190815260200160002060030160009054906101000a900460ff169050919050565b61132b61141b565b73ffffffffffffffffffffffffffffffffffffffff16611349610cd1565b73ffffffffffffffffffffffffffffffffffffffff161461139f576040517f08c379a000000000000000000000000000000000000000000000000000000000815260040161139690611d40565b60405180910390fd5b600073ffffffffffffffffffffffffffffffffffffffff168173ffffffffffffffffffffffffffffffffffffffff16141561140f576040517f08c379a000000000000000000000000000000000000000000000000000000000815260040161140690611ce0565b60405180910390fd5b611418816115b2565b50565b600033905090565b80156114a0578473ffffffffffffffffffffffffffffffffffffffff166342842e0e61144d61141b565b30876040518463ffffffff1660e01b815260040161146d93929190611bf4565b600060405180830381600087803b15801561148757600080fd5b505af115801561149b573d6000803e3d6000fd5b505050505b600160056000600354815260200190815260200160002060008773ffffffffffffffffffffffffffffffffffffffff1673ffffffffffffffffffffffffffffffffffffffff168152602001908152602001600020600086815260200190815260200160002060006101000a81548160ff021916908315150217905550600460009054906101000a900473ffffffffffffffffffffffffffffffffffffffff1673ffffffffffffffffffffffffffffffffffffffff166340c10f1984846040518363ffffffff1660e01b8152600401611579929190611c2b565b600060405180830381600087803b15801561159357600080fd5b505af11580156115a7573d6000803e3d6000fd5b505050505050505050565b60008060009054906101000a900473ffffffffffffffffffffffffffffffffffffffff169050816000806101000a81548173ffffffffffffffffffffffffffffffffffffffff021916908373ffffffffffffffffffffffffffffffffffffffff1602179055508173ffffffffffffffffffffffffffffffffffffffff168173ffffffffffffffffffffffffffffffffffffffff167f8be0079c531659141344cd1fd0a4f28419497f9722a3daafe3b4186f6b6457e060405160405180910390a35050565b600061168961168484611e45565b611e20565b905080838252602082019050828560208602820111156116a857600080fd5b60005b858110156116d857816116be88826117c8565b8452602084019350602083019250506001810190506116ab565b5050509392505050565b60006116f56116f084611e71565b611e20565b90508281526020810184848401111561170d57600080fd5b611718848285611fc5565b509392505050565b60008135905061172f816122d0565b92915050565b600081519050611744816122d0565b92915050565b600082601f83011261175b57600080fd5b813561176b848260208601611676565b91505092915050565b600081359050611783816122e7565b92915050565b600081519050611798816122e7565b92915050565b600082601f8301126117af57600080fd5b81356117bf8482602086016116e2565b91505092915050565b6000813590506117d7816122fe565b92915050565b6000815190506117ec816122fe565b92915050565b60006020828403121561180457600080fd5b600061181284828501611720565b91505092915050565b60006020828403121561182d57600080fd5b600061183b84828501611735565b91505092915050565b6000806000806080858703121561185a57600080fd5b600061186887828801611720565b945050602061187987828801611720565b935050604061188a878288016117c8565b925050606085013567ffffffffffffffff8111156118a757600080fd5b6118b38782880161179e565b91505092959194509250565b600080604083850312156118d257600080fd5b60006118e085828601611720565b925050602083013567ffffffffffffffff8111156118fd57600080fd5b6119098582860161174a565b9150509250929050565b6000806040838503121561192657600080fd5b600061193485828601611720565b9250506020611945858286016117c8565b9150509250929050565b600080600080600060a0868803121561196757600080fd5b600061197588828901611720565b9550506020611986888289016117c8565b9450506040611997888289016117c8565b93505060606119a8888289016117c8565b92505060806119b988828901611774565b9150509295509295909350565b6000602082840312156119d857600080fd5b60006119e684828501611789565b91505092915050565b600060208284031215611a0157600080fd5b6000611a0f848285016117dd565b91505092915050565b600080600060608486031215611a2d57600080fd5b6000611a3b868287016117c8565b9350506020611a4c86828701611720565b9250506040611a5d868287016117c8565b9150509250925092565b611a7081611f09565b82525050565b611a7f81611f1b565b82525050565b611a8e81611f27565b82525050565b611a9d81611f87565b82525050565b611aac81611fab565b82525050565b6000611abf602983611ea2565b9150611aca826120ca565b604082019050919050565b6000611ae2602683611ea2565b9150611aed82612119565b604082019050919050565b6000611b05602983611ea2565b9150611b1082612168565b604082019050919050565b6000611b28602d83611ea2565b9150611b33826121b7565b604082019050919050565b6000611b4b602083611ea2565b9150611b5682612206565b602082019050919050565b6000611b6e601883611ea2565b9150611b798261222f565b602082019050919050565b6000611b91603283611ea2565b9150611b9c82612258565b604082019050919050565b6000611bb4601f83611ea2565b9150611bbf826122a7565b602082019050919050565b611bd381611f7d565b82525050565b6000602082019050611bee6000830184611a67565b92915050565b6000606082019050611c096000830186611a67565b611c166020830185611a67565b611c236040830184611bca565b949350505050565b6000604082019050611c406000830185611a67565b611c4d6020830184611bca565b9392505050565b6000602082019050611c696000830184611a76565b92915050565b6000602082019050611c846000830184611a85565b92915050565b6000602082019050611c9f6000830184611a94565b92915050565b6000602082019050611cba6000830184611aa3565b92915050565b60006020820190508181036000830152611cd981611ab2565b9050919050565b60006020820190508181036000830152611cf981611ad5565b9050919050565b60006020820190508181036000830152611d1981611af8565b9050919050565b60006020820190508181036000830152611d3981611b1b565b9050919050565b60006020820190508181036000830152611d5981611b3e565b9050919050565b60006020820190508181036000830152611d7981611b61565b9050919050565b60006020820190508181036000830152611d9981611b84565b9050919050565b60006020820190508181036000830152611db981611ba7565b9050919050565b6000602082019050611dd56000830184611bca565b92915050565b6000608082019050611df06000830187611bca565b611dfd6020830186611bca565b611e0a6040830185611bca565b611e176060830184611a76565b95945050505050565b6000611e2a611e3b565b9050611e368282611fd4565b919050565b6000604051905090565b600067ffffffffffffffff821115611e6057611e5f61207d565b5b602082029050602081019050919050565b600067ffffffffffffffff821115611e8c57611e8b61207d565b5b611e95826120ac565b9050602081019050919050565b600082825260208201905092915050565b6000611ebe82611f7d565b9150611ec983611f7d565b9250827fffffffffffffffffffffffffffffffffffffffffffffffffffffffffffffffff03821115611efe57611efd61204e565b5b828201905092915050565b6000611f1482611f5d565b9050919050565b60008115159050919050565b60007fffffffff0000000000000000000000000000000000000000000000000000000082169050919050565b6000819050919050565b600073ffffffffffffffffffffffffffffffffffffffff82169050919050565b6000819050919050565b6000611f9282611f99565b9050919050565b6000611fa482611f5d565b9050919050565b6000611fbe611fb983611f53565b6120bd565b9050919050565b82818337600083830152505050565b611fdd826120ac565b810181811067ffffffffffffffff82111715611ffc57611ffb61207d565b5b80604052505050565b600061201082611f7d565b91507fffffffffffffffffffffffffffffffffffffffffffffffffffffffffffffffff8214156120435761204261204e565b5b600182019050919050565b7f4e487b7100000000000000000000000000000000000000000000000000000000600052601160045260246000fd5b7f4e487b7100000000000000000000000000000000000000000000000000000000600052604160045260246000fd5b6000601f19601f8301169050919050565b60008160e01b9050919050565b7f5468652063616c6c6572206973206e6f7420746865206f776e6572206f66207460008201527f68697320746f6b656e0000000000000000000000000000000000000000000000602082015250565b7f4f776e61626c653a206e6577206f776e657220697320746865207a65726f206160008201527f6464726573730000000000000000000000000000000000000000000000000000602082015250565b7f54686973204e4654206973206e6f7420656c696769626c6520666f722064697360008201527f747269627574696f6e0000000000000000000000000000000000000000000000602082015250565b7f54686973204e46542068617320616c726561647920636c61696d65642069747360008201527f20646973747269627574696f6e00000000000000000000000000000000000000602082015250565b7f4f776e61626c653a2063616c6c6572206973206e6f7420746865206f776e6572600082015250565b7f54686973204e4654206973206e6f7420696e2072616e67650000000000000000600082015250565b7f5468697320646f6573206e6f742061707065617220746f20626520612076616c60008201527f69642045524337323120636f6e74726163740000000000000000000000000000602082015250565b7f5265656e7472616e637947756172643a207265656e7472616e742063616c6c00600082015250565b6122d981611f09565b81146122e457600080fd5b50565b6122f081611f1b565b81146122fb57600080fd5b50565b61230781611f7d565b811461231257600080fd5b5056fea2646970667358221220b1ace1b10d9ccfefeca66a7f99080b8a0a2a88c7c4a68ab3d2e59d58de06202164736f6c63430008040033",
  "linkReferences": {},
  "deployedLinkReferences": {}
}