{
  "_format": "hh-sol-artifact-1",
  "contractName": "PlatinumDistributor",
  "sourceName": "contracts/platDistributor.sol",
  "abi": [
    {
      "inputs": [
        {
          "internalType": "contract PlatinumToken",
          "name": "_platinumToken",
          "type": "address"
        }
      ],
      "stateMutability": "nonpayable",
      "type": "constructor"
    },
    {
      "anonymous": false,
      "inputs": [
        {
          "indexed": true,
          "internalType": "address",
          "name": "previousOwner",
          "type": "address"
        },
        {
          "indexed": true,
          "internalType": "address",
          "name": "newOwner",
          "type": "address"
        }
      ],
      "name": "OwnershipTransferred",
      "type": "event"
    },
    {
      "inputs": [
        {
          "internalType": "address",
          "name": "contractERC721",
          "type": "address"
        }
      ],
      "name": "_getDistributableBurnForDistribution",
      "outputs": [
        {
          "internalType": "bool",
          "name": "",
          "type": "bool"
        }
      ],
      "stateMutability": "view",
      "type": "function"
    },
    {
      "inputs": [
        {
          "internalType": "address",
          "name": "contractERC721",
          "type": "address"
        }
      ],
      "name": "_getDistributableIdLBound",
      "outputs": [
        {
          "internalType": "uint256",
          "name": "",
          "type": "uint256"
        }
      ],
      "stateMutability": "view",
      "type": "function"
    },
    {
      "inputs": [
        {
          "internalType": "address",
          "name": "contractERC721",
          "type": "address"
        }
      ],
      "name": "_getDistributableIdUBound",
      "outputs": [
        {
          "internalType": "uint256",
          "name": "",
          "type": "uint256"
        }
      ],
      "stateMutability": "view",
      "type": "function"
    },
    {
      "inputs": [
        {
          "internalType": "address",
          "name": "contractERC721",
          "type": "address"
        }
      ],
      "name": "_getDistributableTokenPerNFT",
      "outputs": [
        {
          "internalType": "uint256",
          "name": "",
          "type": "uint256"
        }
      ],
      "stateMutability": "view",
      "type": "function"
    },
    {
      "inputs": [
        {
          "internalType": "address",
          "name": "_eligibleERC721",
          "type": "address"
        },
        {
          "internalType": "uint256",
          "name": "_lBoundId",
          "type": "uint256"
        },
        {
          "internalType": "uint256",
          "name": "_uBoundId",
          "type": "uint256"
        },
        {
          "internalType": "uint256",
          "name": "_tokenPerNFT",
          "type": "uint256"
        },
        {
          "internalType": "bool",
          "name": "_burnForDistribution",
          "type": "bool"
        }
      ],
      "name": "addDistributableContract",
      "outputs": [],
      "stateMutability": "nonpayable",
      "type": "function"
    },
    {
      "inputs": [
        {
          "internalType": "address",
          "name": "contractERC721",
          "type": "address"
        },
        {
          "internalType": "uint256",
          "name": "tokenId",
          "type": "uint256"
        }
      ],
      "name": "claimSingle",
      "outputs": [],
      "stateMutability": "nonpayable",
      "type": "function"
    },
    {
      "inputs": [
        {
          "internalType": "uint256",
          "name": "",
          "type": "uint256"
        },
        {
          "internalType": "address",
          "name": "",
          "type": "address"
        },
        {
          "internalType": "uint256",
          "name": "",
          "type": "uint256"
        }
      ],
      "name": "claimedByTokenId",
      "outputs": [
        {
          "internalType": "bool",
          "name": "",
          "type": "bool"
        }
      ],
      "stateMutability": "view",
      "type": "function"
    },
    {
      "inputs": [
        {
          "internalType": "address",
          "name": "",
          "type": "address"
        }
      ],
      "name": "distributablePools",
      "outputs": [
        {
          "internalType": "uint256",
          "name": "lBoundId",
          "type": "uint256"
        },
        {
          "internalType": "uint256",
          "name": "uBoundId",
          "type": "uint256"
        },
        {
          "internalType": "uint256",
          "name": "tokenPerNFT",
          "type": "uint256"
        },
        {
          "internalType": "bool",
          "name": "burnForDistribution",
          "type": "bool"
        }
      ],
      "stateMutability": "view",
      "type": "function"
    },
    {
      "inputs": [
        {
          "internalType": "address",
          "name": "",
          "type": "address"
        },
        {
          "internalType": "address",
          "name": "",
          "type": "address"
        },
        {
          "internalType": "uint256",
          "name": "",
          "type": "uint256"
        },
        {
          "internalType": "bytes",
          "name": "",
          "type": "bytes"
        }
      ],
      "name": "onERC721Received",
      "outputs": [
        {
          "internalType": "bytes4",
          "name": "",
          "type": "bytes4"
        }
      ],
      "stateMutability": "nonpayable",
      "type": "function"
    },
    {
      "inputs": [],
      "name": "owner",
      "outputs": [
        {
          "internalType": "address",
          "name": "",
          "type": "address"
        }
      ],
      "stateMutability": "view",
      "type": "function"
    },
    {
      "inputs": [],
      "name": "platinumToken",
      "outputs": [
        {
          "internalType": "contract PlatinumToken",
          "name": "",
          "type": "address"
        }
      ],
      "stateMutability": "view",
      "type": "function"
    },
    {
      "inputs": [],
      "name": "renounceOwnership",
      "outputs": [],
      "stateMutability": "nonpayable",
      "type": "function"
    },
    {
      "inputs": [],
      "name": "season",
      "outputs": [
        {
          "internalType": "uint256",
          "name": "",
          "type": "uint256"
        }
      ],
      "stateMutability": "view",
      "type": "function"
    },
    {
      "inputs": [
        {
          "internalType": "address",
          "name": "newOwner",
          "type": "address"
        }
      ],
      "name": "transferOwnership",
      "outputs": [],
      "stateMutability": "nonpayable",
      "type": "function"
    }
  ],
  "bytecode": "0x608060405260006003553480156200001657600080fd5b5060405162001cf838038062001cf883398181016040528101906200003c91906200018e565b6200005c62000050620000ab60201b60201c565b620000b360201b60201c565b6001808190555080600460006101000a81548173ffffffffffffffffffffffffffffffffffffffff021916908373ffffffffffffffffffffffffffffffffffffffff160217905550506200021c565b600033905090565b60008060009054906101000a900473ffffffffffffffffffffffffffffffffffffffff169050816000806101000a81548173ffffffffffffffffffffffffffffffffffffffff021916908373ffffffffffffffffffffffffffffffffffffffff1602179055508173ffffffffffffffffffffffffffffffffffffffff168173ffffffffffffffffffffffffffffffffffffffff167f8be0079c531659141344cd1fd0a4f28419497f9722a3daafe3b4186f6b6457e060405160405180910390a35050565b600081519050620001888162000202565b92915050565b600060208284031215620001a157600080fd5b6000620001b18482850162000177565b91505092915050565b6000620001c782620001e2565b9050919050565b6000620001db82620001ba565b9050919050565b600073ffffffffffffffffffffffffffffffffffffffff82169050919050565b6200020d81620001ce565b81146200021957600080fd5b50565b611acc806200022c6000396000f3fe608060405234801561001057600080fd5b50600436106100ea5760003560e01c80638da5cb5b1161008c578063d0e350bf11610066578063d0e350bf1461024e578063d4fea53e1461027e578063e5d69a33146102ae578063f2fde38b146102de576100ea565b80638da5cb5b146101f6578063baf6521d14610214578063c50b0fb014610230576100ea565b80634e19f1c0116100c85780634e19f1c01461018257806364cdc88c1461019e578063715018a6146101bc578063798bbd04146101c6576100ea565b8063150b7a02146100ef5780633b47f34c1461011f578063493fee2d14610152575b600080fd5b6101096004803603810190610104919061117f565b6102fa565b6040516101169190611533565b60405180910390f35b6101396004803603810190610134919061112d565b61030e565b604051610149949392919061167f565b60405180910390f35b61016c600480360381019061016791906112ff565b61034b565b6040516101799190611518565b60405180910390f35b61019c60048036038101906101979190611236565b610387565b005b6101a6610579565b6040516101b3919061154e565b60405180910390f35b6101c461059f565b005b6101e060048036038101906101db919061112d565b610627565b6040516101ed9190611664565b60405180910390f35b6101fe6106f7565b60405161020b919061149d565b60405180910390f35b61022e600480360381019061022991906111fa565b610720565b005b610238610a71565b6040516102459190611664565b60405180910390f35b6102686004803603810190610263919061112d565b610a77565b6040516102759190611664565b60405180910390f35b6102986004803603810190610293919061112d565b610b47565b6040516102a59190611664565b60405180910390f35b6102c860048036038101906102c3919061112d565b610c17565b6040516102d59190611518565b60405180910390f35b6102f860048036038101906102f3919061112d565b610cf4565b005b600063150b7a0260e01b9050949350505050565b60026020528060005260406000206000915090508060000154908060010154908060020154908060030160009054906101000a900460ff16905084565b6005602052826000526040600020602052816000526040600020602052806000526040600020600092509250509054906101000a900460ff1681565b61038f610dec565b73ffffffffffffffffffffffffffffffffffffffff166103ad6106f7565b73ffffffffffffffffffffffffffffffffffffffff1614610403576040517f08c379a00000000000000000000000000000000000000000000000000000000081526004016103fa90611604565b60405180910390fd5b8473ffffffffffffffffffffffffffffffffffffffff166301ffc9a76380ac58cd6040518263ffffffff1660e01b81526004016104409190611569565b60206040518083038186803b15801561045857600080fd5b505afa15801561046c573d6000803e3d6000fd5b505050506040513d601f19601f8201168201806040525081019061049091906112ad565b6104cf576040517f08c379a00000000000000000000000000000000000000000000000000000000081526004016104c690611644565b60405180910390fd5b6040518060800160405280858152602001848152602001838152602001821515815250600260008773ffffffffffffffffffffffffffffffffffffffff1673ffffffffffffffffffffffffffffffffffffffff16815260200190815260200160002060008201518160000155602082015181600101556040820151816002015560608201518160030160006101000a81548160ff0219169083151502179055509050505050505050565b600460009054906101000a900473ffffffffffffffffffffffffffffffffffffffff1681565b6105a7610dec565b73ffffffffffffffffffffffffffffffffffffffff166105c56106f7565b73ffffffffffffffffffffffffffffffffffffffff161461061b576040517f08c379a000000000000000000000000000000000000000000000000000000000815260040161061290611604565b60405180910390fd5b6106256000610df4565b565b600080600260008473ffffffffffffffffffffffffffffffffffffffff1673ffffffffffffffffffffffffffffffffffffffff16815260200190815260200160002060020154116106ad576040517f08c379a00000000000000000000000000000000000000000000000000000000081526004016106a4906115c4565b60405180910390fd5b600260008373ffffffffffffffffffffffffffffffffffffffff1673ffffffffffffffffffffffffffffffffffffffff168152602001908152602001600020600201549050919050565b60008060009054906101000a900473ffffffffffffffffffffffffffffffffffffffff16905090565b6000600260008473ffffffffffffffffffffffffffffffffffffffff1673ffffffffffffffffffffffffffffffffffffffff168152602001908152602001600020905060056000600354815260200190815260200160002060008473ffffffffffffffffffffffffffffffffffffffff1673ffffffffffffffffffffffffffffffffffffffff168152602001908152602001600020600083815260200190815260200160002060009054906101000a900460ff1615610814576040517f08c379a000000000000000000000000000000000000000000000000000000000815260040161080b906115e4565b60405180910390fd5b600081600201541161085b576040517f08c379a0000000000000000000000000000000000000000000000000000000008152600401610852906115c4565b60405180910390fd5b6000816001015490506000826001015414156108f2578373ffffffffffffffffffffffffffffffffffffffff166318160ddd6040518163ffffffff1660e01b815260040160206040518083038186803b1580156108b757600080fd5b505afa1580156108cb573d6000803e3d6000fd5b505050506040513d601f19601f820116820180604052508101906108ef91906112d6565b90505b828260000154111580156109065750828110155b610945576040517f08c379a000000000000000000000000000000000000000000000000000000000815260040161093c90611624565b60405180910390fd5b8373ffffffffffffffffffffffffffffffffffffffff16636352211e846040518263ffffffff1660e01b815260040161097e9190611664565b60206040518083038186803b15801561099657600080fd5b505afa1580156109aa573d6000803e3d6000fd5b505050506040513d601f19601f820116820180604052508101906109ce9190611156565b73ffffffffffffffffffffffffffffffffffffffff166109ec610dec565b73ffffffffffffffffffffffffffffffffffffffff1614610a42576040517f08c379a0000000000000000000000000000000000000000000000000000000008152600401610a3990611584565b60405180910390fd5b610a6b8484610a4f610dec565b85600201548660030160009054906101000a900460ff16610eb8565b50505050565b60035481565b600080600260008473ffffffffffffffffffffffffffffffffffffffff1673ffffffffffffffffffffffffffffffffffffffff1681526020019081526020016000206002015411610afd576040517f08c379a0000000000000000000000000000000000000000000000000000000008152600401610af4906115c4565b60405180910390fd5b600260008373ffffffffffffffffffffffffffffffffffffffff1673ffffffffffffffffffffffffffffffffffffffff168152602001908152602001600020600001549050919050565b600080600260008473ffffffffffffffffffffffffffffffffffffffff1673ffffffffffffffffffffffffffffffffffffffff1681526020019081526020016000206002015411610bcd576040517f08c379a0000000000000000000000000000000000000000000000000000000008152600401610bc4906115c4565b60405180910390fd5b600260008373ffffffffffffffffffffffffffffffffffffffff1673ffffffffffffffffffffffffffffffffffffffff168152602001908152602001600020600101549050919050565b600080600260008473ffffffffffffffffffffffffffffffffffffffff1673ffffffffffffffffffffffffffffffffffffffff1681526020019081526020016000206002015411610c9d576040517f08c379a0000000000000000000000000000000000000000000000000000000008152600401610c94906115c4565b60405180910390fd5b600260008373ffffffffffffffffffffffffffffffffffffffff1673ffffffffffffffffffffffffffffffffffffffff16815260200190815260200160002060030160009054906101000a900460ff169050919050565b610cfc610dec565b73ffffffffffffffffffffffffffffffffffffffff16610d1a6106f7565b73ffffffffffffffffffffffffffffffffffffffff1614610d70576040517f08c379a0000000000000000000000000000000000000000000000000000000008152600401610d6790611604565b60405180910390fd5b600073ffffffffffffffffffffffffffffffffffffffff168173ffffffffffffffffffffffffffffffffffffffff161415610de0576040517f08c379a0000000000000000000000000000000000000000000000000000000008152600401610dd7906115a4565b60405180910390fd5b610de981610df4565b50565b600033905090565b60008060009054906101000a900473ffffffffffffffffffffffffffffffffffffffff169050816000806101000a81548173ffffffffffffffffffffffffffffffffffffffff021916908373ffffffffffffffffffffffffffffffffffffffff1602179055508173ffffffffffffffffffffffffffffffffffffffff168173ffffffffffffffffffffffffffffffffffffffff167f8be0079c531659141344cd1fd0a4f28419497f9722a3daafe3b4186f6b6457e060405160405180910390a35050565b8015610f35578473ffffffffffffffffffffffffffffffffffffffff166342842e0e610ee2610dec565b30876040518463ffffffff1660e01b8152600401610f02939291906114b8565b600060405180830381600087803b158015610f1c57600080fd5b505af1158015610f30573d6000803e3d6000fd5b505050505b600160056000600354815260200190815260200160002060008773ffffffffffffffffffffffffffffffffffffffff1673ffffffffffffffffffffffffffffffffffffffff168152602001908152602001600020600086815260200190815260200160002060006101000a81548160ff021916908315150217905550600460009054906101000a900473ffffffffffffffffffffffffffffffffffffffff1673ffffffffffffffffffffffffffffffffffffffff166340c10f1984846040518363ffffffff1660e01b815260040161100e9291906114ef565b600060405180830381600087803b15801561102857600080fd5b505af115801561103c573d6000803e3d6000fd5b505050505050505050565b600061105a611055846116e9565b6116c4565b90508281526020810184848401111561107257600080fd5b61107d8482856117e7565b509392505050565b60008135905061109481611a51565b92915050565b6000815190506110a981611a51565b92915050565b6000813590506110be81611a68565b92915050565b6000815190506110d381611a68565b92915050565b600082601f8301126110ea57600080fd5b81356110fa848260208601611047565b91505092915050565b60008135905061111281611a7f565b92915050565b60008151905061112781611a7f565b92915050565b60006020828403121561113f57600080fd5b600061114d84828501611085565b91505092915050565b60006020828403121561116857600080fd5b60006111768482850161109a565b91505092915050565b6000806000806080858703121561119557600080fd5b60006111a387828801611085565b94505060206111b487828801611085565b93505060406111c587828801611103565b925050606085013567ffffffffffffffff8111156111e257600080fd5b6111ee878288016110d9565b91505092959194509250565b6000806040838503121561120d57600080fd5b600061121b85828601611085565b925050602061122c85828601611103565b9150509250929050565b600080600080600060a0868803121561124e57600080fd5b600061125c88828901611085565b955050602061126d88828901611103565b945050604061127e88828901611103565b935050606061128f88828901611103565b92505060806112a0888289016110af565b9150509295509295909350565b6000602082840312156112bf57600080fd5b60006112cd848285016110c4565b91505092915050565b6000602082840312156112e857600080fd5b60006112f684828501611118565b91505092915050565b60008060006060848603121561131457600080fd5b600061132286828701611103565b935050602061133386828701611085565b925050604061134486828701611103565b9150509250925092565b6113578161172b565b82525050565b6113668161173d565b82525050565b61137581611749565b82525050565b611384816117a9565b82525050565b611393816117cd565b82525050565b60006113a660298361171a565b91506113b182611874565b604082019050919050565b60006113c960268361171a565b91506113d4826118c3565b604082019050919050565b60006113ec60298361171a565b91506113f782611912565b604082019050919050565b600061140f602d8361171a565b915061141a82611961565b604082019050919050565b600061143260208361171a565b915061143d826119b0565b602082019050919050565b600061145560188361171a565b9150611460826119d9565b602082019050919050565b600061147860328361171a565b915061148382611a02565b604082019050919050565b6114978161179f565b82525050565b60006020820190506114b2600083018461134e565b92915050565b60006060820190506114cd600083018661134e565b6114da602083018561134e565b6114e7604083018461148e565b949350505050565b6000604082019050611504600083018561134e565b611511602083018461148e565b9392505050565b600060208201905061152d600083018461135d565b92915050565b6000602082019050611548600083018461136c565b92915050565b6000602082019050611563600083018461137b565b92915050565b600060208201905061157e600083018461138a565b92915050565b6000602082019050818103600083015261159d81611399565b9050919050565b600060208201905081810360008301526115bd816113bc565b9050919050565b600060208201905081810360008301526115dd816113df565b9050919050565b600060208201905081810360008301526115fd81611402565b9050919050565b6000602082019050818103600083015261161d81611425565b9050919050565b6000602082019050818103600083015261163d81611448565b9050919050565b6000602082019050818103600083015261165d8161146b565b9050919050565b6000602082019050611679600083018461148e565b92915050565b6000608082019050611694600083018761148e565b6116a1602083018661148e565b6116ae604083018561148e565b6116bb606083018461135d565b95945050505050565b60006116ce6116df565b90506116da82826117f6565b919050565b6000604051905090565b600067ffffffffffffffff82111561170457611703611827565b5b61170d82611856565b9050602081019050919050565b600082825260208201905092915050565b60006117368261177f565b9050919050565b60008115159050919050565b60007fffffffff0000000000000000000000000000000000000000000000000000000082169050919050565b6000819050919050565b600073ffffffffffffffffffffffffffffffffffffffff82169050919050565b6000819050919050565b60006117b4826117bb565b9050919050565b60006117c68261177f565b9050919050565b60006117e06117db83611775565b611867565b9050919050565b82818337600083830152505050565b6117ff82611856565b810181811067ffffffffffffffff8211171561181e5761181d611827565b5b80604052505050565b7f4e487b7100000000000000000000000000000000000000000000000000000000600052604160045260246000fd5b6000601f19601f8301169050919050565b60008160e01b9050919050565b7f5468652063616c6c6572206973206e6f7420746865206f776e6572206f66207460008201527f68697320746f6b656e0000000000000000000000000000000000000000000000602082015250565b7f4f776e61626c653a206e6577206f776e657220697320746865207a65726f206160008201527f6464726573730000000000000000000000000000000000000000000000000000602082015250565b7f54686973204e4654206973206e6f7420656c696769626c6520666f722064697360008201527f747269627574696f6e0000000000000000000000000000000000000000000000602082015250565b7f54686973204e46542068617320616c726561647920636c61696d65642069747360008201527f20646973747269627574696f6e00000000000000000000000000000000000000602082015250565b7f4f776e61626c653a2063616c6c6572206973206e6f7420746865206f776e6572600082015250565b7f54686973204e4654206973206e6f7420696e2072616e67650000000000000000600082015250565b7f5468697320646f6573206e6f742061707065617220746f20626520612076616c60008201527f69642045524337323120636f6e74726163740000000000000000000000000000602082015250565b611a5a8161172b565b8114611a6557600080fd5b50565b611a718161173d565b8114611a7c57600080fd5b50565b611a888161179f565b8114611a9357600080fd5b5056fea2646970667358221220c175ffb4c745ce0ac9203fc0a96ae1c96e9462921d5d3da42c673af7169a246264736f6c63430008040033",
  "linkReferences": {},
  "deployedLinkReferences": {}
}